:020000040800F2
:1000000000000520097E0008ED0F0008EF0F000832
:10001000F10F0008F30F0008F50F000800000000C2
:10002000000000000000000000000000B1570008C0
:10003000F70F00080000000051580008F90F0008F1
:10004000597E0008597E0008597E0008597E000834
:10005000597E0008597E0008597E0008597E000824
:10006000597E0008597E0008597E0008597E000814
:10007000597E0008597E0008597E0008597E000804
:10008000597E0008597E0008597E0008597E0008F4
:10009000597E0008597E0008597E0008597E0008E4
:1000A000597E0008597E0008597E0008597E0008D4
:1000B000597E0008597E0008597E0008597E0008C4
:1000C000597E0008597E0008597E0008597E0008B4
:1000D000597E0008597E0008597E0008597E0008A4
:1000E000597E0008597E0008597E0008597E000894
:1000F00001100008597E0008597E0008597E00084A
:10010000597E0008597E0008597E0008597E000873
:10011000597E0008597E0008597E0008597E000863
:10012000597E0008597E0008597E0008597E000853
:10013000597E000811100008597E0008597E0008F9
:10014000597E0008597E0008597E000821100008D9
:10015000597E0008597E0008597E0008597E000823
:10016000597E0008597E0008597E0008597E000813
:10017000597E0008597E0008597E000800000000E2
:10018000597E0008597E0008597E0008597E0008F3
:10019000597E0008597E0008597E0008597E0008E3
:1001A000597E0008597E0008597E0008597E0008D3
:1001B000597E0008597E0008597E0008597E0008C3
:0801C000597E0008597E000879
:1001D0000348044B834202D0034B03B118477047D6
:1001E0007000002070000020000000000548064953
:1001F000091A891001EBD171491002D0034B03B1E8
:1002000018477047700000207000002000000000B8
:1002100010B5064C237843B9FFF7DAFF044B13B14E
:100220000448AFF300800123237010BD700000204C
:1002300000000000A08C000808B5044B1BB1044965
:100240000448AFF30080BDE80840CFE7000000009D
:1002500074000020A08C00080000000000000000D6
:1002600001F0FF01102A2BDB10F0070F08D010F867
:10027000013B013A8B422DD010F0070F42B3F6D16B
:10028000F0B441EA012141EA014122F007047FF084
:1002900000070023F0E80256083C85EA010586EADB
:1002A000010685FA47F5A3FA87F586FA47F6A5FA17
:1002B00087F68EB9EED1F0BC01F0FF0102F0070223
:1002C00032B110F8013B013A83EA010313B1F8D1CE
:1002D0000020704701387047002D06BF35460338AF
:1002E000073815F0010F07D1013015F4807F02BFE8
:1002F000013015F4C03F0130F0BC0138704700BF39
:1003000053B94AB9002908BF00281CBF4FF0FF317C
:100310004FF0FF3000F072B9ADF1080C6DE904CE7A
:1003200000F006F8DDF804E0DDE9022304B07047D0
:100330002DE9F047089E04468846002B4BD18A429F
:10034000154667D9B2FA82F24AB1C2F1200701FA22
:1003500002F320FA07F7954047EA030894404FEA72
:10036000154E230CB8FBFEF71FFA85FC0EFB178811
:1003700043EA084307FB0CF1994209D9EB1807F14E
:10038000FF3080F01B81994240F21881023F2B44DC
:100390005B1AA4B2B3FBFEF00EFB103344EA034435
:1003A00000FB0CFCA44509D92C1900F1FF3380F0A7
:1003B0000781A44540F2048102382C4440EA0740FA
:1003C000A4EB0C0400271EB1D4400023C6E900436F
:1003D0003946BDE8F0878B4209D9002E00F0EB804A
:1003E0000027C6E9000138463946BDE8F087B3FA70
:1003F00083F7002F47D18B4202D3824200F2FA806A
:10040000841A61EB030301209846002EE0D0C6E970
:100410000048DDE702B9FFDEB2FA82F2002A40F0BE
:100420008F80491B4FEA154E1FFA85F80127B1FB53
:10043000FEFC230C0EFB1C1143EA014308FB0CF1EC
:10044000994207D9EB180CF1FF3002D2994200F221
:10045000CD808446591AA3B2B1FBFEF00EFB1014F6
:1004600043EA044408FB00F8A04507D92C1900F121
:10047000FF3302D2A04500F2B6801846A4EB080470
:1004800040EA0C409FE7C7F1200CBB4022FA0CFE6B
:100490004EEA030E01FA07F420FA0CF521FA0CF3E8
:1004A0004FEA1E482543B3FBF8F92C0C08FB19331F
:1004B0001FFA8EFA44EA034309FB0AF49C4202FA4B
:1004C00007F200FA07F10BD91EEB030309F1FF3025
:1004D00080F087809C4240F28480A9F10209734435
:1004E0001B1BADB2B3FBF8F008FB103345EA034425
:1004F00000FB0AFAA24508D91EEB040400F1FF3301
:100500006BD2A24569D90238744440EA0940A0FB85
:100510000289A4EB0A044C45C2464B4654D351D041
:10052000002E69D0B1EB0A0564EB030404FA0CFC5D
:10053000FD40FC404CEA0505C6E90054002747E7AA
:10054000C2F1200320FA03F7954001FA02F021FAE4
:1005500003F34FEA154E3843010CB3FBFEF71FFAC5
:1005600085F80EFB173341EA034107FB08F38B4282
:1005700004FA02F407D9691807F1FF3C2FD28B4225
:100580002DD9023F2944CB1A81B2B3FBFEF00EFBFA
:10059000103341EA034100FB08F38B4207D9691885
:1005A00000F1FF3C17D28B4215D902382944C91AF1
:1005B00040EA07473BE73746304609E70746E7E6A4
:1005C0001846FBE64145ABD2B8EB020A69EB0E02D6
:1005D00001381346A4E76046E9E7184695E7674601
:1005E000D1E781467CE702382C4447E7ACF1020CA6
:1005F0002B442FE7384608E73746E9E6704700BF47
:10060000F0B58DB0414B1A6B42F004021A631A6BBD
:1006100002F004020092009A1A6B42F020021A6360
:100620001A6B02F020020192019A1A6B42F08002CA
:100630001A631A6B02F080020292029A1A6B42F05D
:1006400001021A631A6B02F001020392039A1A6BF9
:1006500042F002021A631A6B02F002020492049A38
:100660001A6B42F008021A631A6B02F00802059234
:10067000059A1A6B42F040021A631B6B03F04003A9
:100680000693069B224D002244F28101284603F086
:100690006FFA204F00224021384603F069FA4FF4E8
:1006A000005307931C4B08930024099407A91B4887
:1006B00003F06EF944F2810307930126089609942A
:1006C0000A9407A9284603F063F940230793089684
:1006D00009940A9407A9384603F05AF9802307932E
:1006E0000894099407A9384603F052F94FF480732F
:1006F000079312230893099603230A9304230B9369
:1007000007A9284603F044F90DB0F0BD00380240B7
:1007100000040240001802400000111000080240CE
:10072000064B1B68DA6912F0280F04D008221A62FF
:10073000586AC0B270470020704700BFE03D0020FB
:1007400030B5ADF50F7D0C461546002301930A2206
:10075000014602A804F032FB02A804F06DFE01ABD2
:100760002A46214602A804F04BFC02A804F0BBFD77
:1007700001980DF50F7D30BD10B592B004460146CD
:1007800006A804F0CDFD694606A804F02AFE70B95B
:100790009DF809305BB19DF8083013F0100FF2D1CD
:1007A0000DF109022146044807F040FCEBE706A8DA
:1007B00004F0FFFD12B010BDC48C000808B502683B
:1007C000034B9A4200D008BD03F0E8F9FBE700BFF5
:1007D000001C0040FEE7000008B50C480C4B03600D
:1007E0004FF4E133436000238360C36003610C2254
:1007F00042618361C3610362436202F074FA00B92B
:1008000008BD40F2A5110348FFF7E4FFE03D0020DA
:1008100000480040B88C000808B51548154B036027
:10082000154B4360002383600122C2600361436172
:100830008361C361036201F0B7FD50B900210C4828
:1008400001F010FE50B90021094801F039FE50B9FD
:1008500008BD4FF4C1710948FFF7BCFF40F2891190
:100860000648FFF7B7FF4FF4C8710448FFF7B2FF1F
:10087000543E0020005800405B3D3000B88C00081A
:1008800000B5B5B0324B1A6C42F080521A641B6C42
:1008900003F080530093009B2E4A136823F44043D7
:1008A00043F480431360136803F440430193019BB6
:1008B000012328934FF4A023299302232E934FF46E
:1008C00080022F92042230924822319232930323E5
:1008D000339328A802F03AFA58BB0F23239302213E
:1008E0002491002325934FF480522692279323A826
:1008F00002F082FC10BB184B0293002315931C934B
:10090000219302A802F06EFDE8B902F027FD134B17
:10091000A3FB0030800901F021FD042001F034FD2B
:1009200000220F214FF0FF3001F0DAFC35B05DF806
:1009300004FB4FF4A6710A48FFF74CFF4FF4AD716A
:100940000748FFF747FF4FF4B2710548FFF742FF32
:10095000003802400070004000812000D34D62103A
:10096000B88C000830B585B003F00CF9414800F0B0
:100970007FF9FFF785FFFFF743FEFFF72DFFFFF736
:100980004BFF3D4800F0FCF83C4800F0F9F84FF40C
:10099000FA7003F015F900224021394803F0E8F815
:1009A0004FF40D7007F07EFA0546364800F0E8F87F
:1009B000354C2146354804F0CBFD4FF47A6003F006
:1009C000FFF801222146284604F0B2F901463048DA
:1009D00000F0D6F821462F4800F0D2F82E4B93E8CD
:1009E000070004AB03E9070015E020B161281DD121
:1009F0002A4800F0C5F82A4806F02BF9294B187050
:100A000048B1022802D1284800F0BAF8254B1978DD
:100A1000264800F0B5F8FFF783FE62280CD0E4D931
:100A200065280ED066281ED064280ED002460146E6
:100A30001F4800F0A5F8DEE713491E4800F0A0F8B3
:100A4000D9E71148FFF798FED5E7072201A91A4810
:100A5000FFF776FE18B1194800F092F8CBE7184876
:100A600000F08EF8C7E744F28101164803F086F8DB
:100A7000C1E700BFE03D0020CC8C0008F48C0008EA
:100A800000180240108D0008503E0020F48D000830
:100A9000248D0008308D0008E88D0008448D000882
:100AA000C0710020D4400020C48D0008D48D0008FF
:100AB0009C8D00085C8D0008708D0008788D000802
:100AC0008C8D00080004024008B500F0D7F808BD7E
:100AD00010B5044602E00134FFF7F6FF2078002845
:100AE000F9D110BDF0B587B0B1F1000E07DB0021E0
:100AF000002A0DDB2027142A40DC002617E0CEF167
:100B0000000E002801DB0021F2E740422D21EFE733
:100B100052423027EFE73033741CE4B20DF1180C69
:100B2000B4440CF8143CB0FBF5F060B126465FFA13
:100B30008EF5B0FBF5F305FB1303DBB2092BEAD905
:100B40000733DBB2E7E761B1023606AB1C4404F8B9
:100B5000141CF4B205E00134E4B206A90B4403F816
:100B6000147C23469442F6DB013CE4B206AB2344FA
:100B700013F8140CFFF7A8FF002CF5D107B0F0BD57
:100B80000FB430B583B006AB53F8044B019302E0C9
:100B9000FFF79AFF2C46651C2078002862D0252894
:100BA000F6D102342B78302B02D0002500220BE046
:100BB000AC1C6B780125F9E702EB82004100303B69
:100BC0000B441A4423780134A3F130010929F3D9E5
:100BD00005B152426C2B1ED00020002B42D0732B4B
:100BE0001DD0632B22D0752B27D00021642B26D05B
:100BF000782B18BF582B00D11021622B22D000294E
:100C000030D008BB002926DD019B181D0190186813
:100C1000FFF768FFBFE7237801340120DDE7019B80
:100C20001A1D01921868FFF753FFB4E7019B1A1DC4
:100C300001921878FFF748FFADE70A21D6E76FF079
:100C40000901D5E70221DCE7019B181D0190186816
:100C5000FFF748FF9FE7019B181D01901868FFF7F9
:100C600041FF98E703B0BDE8304004B07047000092
:100C7000014B1860704700BF8C000020044B1B68BC
:100C80001B68DA6912F0800FF8D09862704700BFD5
:100C90008C0000200020704708B50146034806F08C
:100CA00066FD08B9012008BD0020FCE7C0710020E6
:100CB00010B590B0044600930B4601460B4806F071
:100CC0008BFD10B9002010B010BD03AA21460748C3
:100CD00006F060FD9DF81930282B05D03A2B03D083
:100CE000042B01D00120EEE70320ECE7C0710020C7
:100CF00010B58EB01446032924D8DFE801F00205B0
:100D00000E1800200EB010BD01AA0146114806F0D1
:100D100041FDC8B9029B2360F4E701AA01460D48D2
:100D200006F038FD90B9BDF80C302360EAE701AA5F
:100D30000146084806F02EFD50B9BDF80C305B0A9C
:100D40002360DFE70420DDE70120DBE70120D9E7AE
:100D50000120D7E7C071002010B590B00446009381
:100D60000B4601460E4806F081FD10B9002010B078
:100D700010BD03AA21460A4806F00CFD9DF8193063
:100D8000272B0AD005D9282B01D03A2B03D10320D9
:100D9000EDE7042BFBD00120E9E70220E7E700BFE5
:100DA000C07100200020704708B5024B186805F09C
:100DB000C3FD08BD9000002003460D4A126862B1D1
:100DC0000B4A10680B4A12681268A2F500520344DD
:100DD000934206D8064A13607047054A06491160D7
:100DE000EEE7064B0C221A604FF0FF30704700BF51
:100DF0009400002008ED00E0E0780020D878002082
:100E000070B51646002405E04D1C0878AFF300804D
:100E100001342946B442F7DB304670BD4FF0FF3055
:100E200070474FF400534B6000207047012070471B
:100E30000020704770B50D461646002404E0AFF35D
:100E40000080287001340135B442F8DB304670BDB3
:100E500008B5D0F8BC0205F0E8FE08BD08B5D0F82A
:100E6000BC0206F01BF808BD08B5D0F8BC0206F0BD
:100E700030F808BD08B5D0F8BC0206F04CF808BD43
:100E800008B5D0F8BC0205F0D9FE08BD08B5D0F809
:100E9000BC0205F0D7FE08BD08B5D0F8C40300F0C9
:100EA00009FF18B1022803D0022008BD0020FCE78A
:100EB0000120FAE708B5D0F8C40300F011FF18B11B
:100EC000022803D0022008BD0020FCE70120FAE739
:100ED00008B5D0F8C40300F027FF18B1022803D0EA
:100EE000012008BD0020FCE70220FAE708B5D0F891
:100EF000C40300F007FF18B1022803D0022008BD88
:100F00000020FCE70120FAE708B5D0F8C40300F0A0
:100F100005FF08BD10B584B0D0F8C403BDF820406B
:100F200002949DF81C4001949DF81840009400F034
:100F3000DBF920B1022804D0022004B010BD00204B
:100F4000FBE70120F9E710B584B0D0F8C4039DF8A1
:100F500024400394BDF820400294079C01949DF81E
:100F60001840009400F010FA20B1022804D00220AA
:100F700004B010BD0020FBE70120F9E708B5D0F868
:100F8000C40300F0C4FE08BD10B4D0F8C43301EBB4
:100F90008104E0000446184490F83B0048B901EB96
:100FA0008101C800034483F8512000205DF8044B00
:100FB0007047234483F85020F7E7D0F8C43301EB9F
:100FC0008100C20010461A4492F83B2032B901EB6E
:100FD0008101CA00134493F851007047034493F809
:100FE0005000704708B502F0EBFD08BD7047FEE702
:100FF000FEE7FEE7FEE7704708B505F00BFD08BD0C
:1010000008B5024801F099FA08BD00BF54780020E5
:1010100008B5024800F0E4F808BD00BFA859002058
:1010200008B5024800F0A2FD08BD00BF947500207D
:1010300000B583B0214B1A6C42F080521A641A6CCE
:1010400002F080520092009A5A6C42F480425A6434
:101050005B6C03F480430193019B032001F02EF9A4
:10106000002211466FF00B0001F03AF90022114600
:101070006FF00A0001F034F9002211466FF0090008
:1010800001F02EF9002211466FF0040001F028F95A
:10109000002211466FF0030001F022F900220F2117
:1010A0006FF0010001F01CF900220F214FF0FF301A
:1010B00001F016F903B05DF804FB00BF00380240F0
:1010C0000268104B9A4200D0704700B587B00323E6
:1010D00001931222029201220392049304230593A6
:1010E0000DEB0301084802F053FC084B1A6C42F464
:1010F00080021A641B6C03F480030093009B07B00A
:101100005DF804FB00580040001402400038024023
:101110000268114B9A4200D0704700B587B003F5C2
:10112000F8331A6C42F480221A641B6C03F4802397
:101130000093009B4FF4407301930223029300231A
:101140000393032304930723059301A9034802F0A3
:101150001FFC07B05DF804FB00480040000C024093
:1011600000B589B0002201462C2001F0B9F82C20EE
:1011700001F0E8F8154B1A6C42F080021A641B6CFF
:1011800003F080030193019B02A903A802F00CF96C
:1011900002F0EAF843000E48A0FB03239B0C013B3E
:1011A0000C480D4A026040F2E732C26043600023FF
:1011B0000361836001F014FB18B1012009B05DF8F0
:1011C00004FB044801F0A9F9F8E700BF0038024029
:1011D00083DE1B4354780020001C0040704770479A
:1011E00010B50446036841F214029A5812F0400FF9
:1011F00011D141F214029B5813F0010F19D122684A
:1012000041F214034FF48031D1502268D35813F4C3
:10121000004F1BD110BDFFF7C7FD226841F2140338
:101220004021D150012384F84430002384F8453014
:10123000E5E7FFF7D3FF2168012341F214028B5049
:1012400084F84430002384F84530D8E72046FFF77F
:10125000C6FF226841F214034FF40041D15001232C
:1012600084F84430002384F84530D3E7F8B50668A5
:10127000346A04F00F07C4F34343C4F30A14022B87
:101280002ED16CB307EB8702D3000344596C39B3FA
:1012900005462246304600F093FDBA003A44D3009A
:1012A0002B445A6C22445A64DA6C2244DA6406EB0A
:1012B0004713D3F810150B4A0A408AB1D3F800251A
:1012C00022F0804242F00042C3F80025BB00D91949
:1012D000CA002A4492F8503083F0010382F850305B
:1012E000F8BD00BF0000F81FF0B585B09DF828508C
:1012F0009DF82C60BDF8307090F8B842012C41D0B8
:10130000012480F8B8424FEA810C8C444FEACC04A7
:1013100004444FF0000C84F83DC084F83830A4F841
:10132000407084F8391084F83F6002F07F0C84F834
:101330003AC012F0800F1BD101EB810C4FEACC04B4
:1013400004444FF0000C84F83BC0044601EB810CD0
:101350004FEACC00204480F83C500297019600955B
:10136000206800F0B6FD002384F8B83205B0F0BD67
:1013700001EB810C4FEACC0404444FF0010C84F8DB
:101380003BC0E2E70220F1E7F8B59DF81870BDF820
:1013900020608D000D44EC00044484F83B2084F868
:1013A0003F306FB901EB8105EC000444032584F85C
:1013B0004250032B00F29580DFE803F00A8C2E5D8B
:1013C00001EB8105EC000444022584F84250F0E76B
:1013D000012F08BF002A40F0848036B901EB81025A
:1013E000D3000344012283F8512001EB8102D30092
:1013F000034493F851303BB901EB8102D30003441D
:10140000002283F842206CE001EB8102D300034408
:10141000022283F8422064E0B2B901EB8102D300DA
:10142000034493F851303BB901EB8102D3000344EC
:10143000002283F8422054E001EB8102D3000344F0
:10144000022283F842204CE001EB8102D3000344E6
:1014500093F850303BB901EB8102D30003440022E2
:1014600083F842203DE001EB8102D30003440222D5
:1014700083F8422035E0B2B901EB8102D300034486
:1014800093F851303BB901EB8102D30003440022B1
:1014900083F8422025E001EB8102D30003440222BD
:1014A00083F842201DE001EB8102D300034493F84E
:1014B00050303BB901EB8102D3000344002283F892
:1014C00042200EE001EB8102D3000344022283F8A4
:1014D000422006E001EB8102D3000344002283F89E
:1014E00042208A005418E3000344079C5C649E6415
:1014F000002483F85C40DC6483F8391083F85D4095
:101500001144CB0003F13801027C0144006800F073
:10151000E9FDF8BD30B583B005460468D4F8403421
:101520000193D4F840340093009B23F02E030093E2
:10153000019B13F0020F07D0019B13F0010F28D17C
:10154000009B43F002030093019B13F0080F13D09C
:10155000009B43F008030093019B13F0040F34D069
:10156000AB69022B1CD0EB68032B29D02846FFF770
:1015700087FC2846FFF772FC019B13F0200F03D075
:10158000009B43F020030093009BC4F8403403B059
:1015900030BDA36923F00053A361FFF75FFCCFE7E1
:1015A000019B03F4C023B3F5802F04D001212868E8
:1015B00000F022FCDAE70221286800F01DFCD5E7E4
:1015C0004EF66022C4F80424D0E72846FFF75EFCFC
:1015D000D4F8403423F02E03C4F840342A689369C9
:1015E00043F000539361C7E7F8B506460D46076818
:1015F00007EB411707F5A064A36813F0040F3CD074
:101600000423A360E36843F00203E360A36813F4D8
:10161000007F68D1A36813F0010F00F08D8033695B
:101620004BB1AA002A44D30033449A6C2169C1F318
:101630001201521ADA64AA002A44D3003344012268
:1016400083F85D2000219965A26093F83F20022A6B
:1016500014BF002301238A4208BF0123002B4ED16F
:10166000032A57D0AB005919CA00324492F85030BF
:1016700083F0010382F85030F8BDA36813F0200F07
:1016800002D02023A360C1E7A36813F0080F17D18D
:10169000A36813F4806FB9D0E36843F00203E360FA
:1016A000006800F09EFC1023A36005EB8502D300C8
:1016B0003344082283F85D204FF48063A360A5E7DC
:1016C000E36843F00203E36001EB8102D3000344CB
:1016D000052283F85D201023A3600823A36000681F
:1016E00000F07FFC92E7E36843F00203E3602946E1
:1016F000306800F076FC4FF40073A360BCE7E36849
:1017000043F00203E3602946306800F06AFC1023CE
:10171000A360A7E7D7F8003543F00053C7F80035BA
:1017200005EB8502D3003344012283F85C2029466F
:101730003046FFF79FFB95E7A36813F0020F62D0D6
:10174000E36823F00203E36005EB8502D300334432
:1017500093F85D30012B20D0052B32D0082B18BF19
:10176000062B3ED1AA002A44D30033449A6D01329D
:101770009A65032A2DD9AA002A44D30033440022B3
:101780009A65042283F85C20D7F8003523F0804363
:1017900043F00043C7F8003506E005EB8502D300AF
:1017A0003344012283F85C200223A36005EB850209
:1017B000D300334493F85C2029463046FFF75AFBA8
:1017C0005AE705EB8502D3003344052283F85C20F9
:1017D000EAE705EB8502D3003344022283F85C205C
:1017E000D2E7032BE0D105EB8502D300334402227C
:1017F00083F85C20D7F8003523F0804343F00043A2
:10180000C7F80035D0E7A36813F0800F21D1A36893
:1018100013F0100F3FF430AF05EB8502D3001A46EA
:10182000334493F83F30032B2BD0022B14BF0022FC
:101830000122002B14BF134601233BB105EB8502A7
:10184000D300334400229A6533694BB31023A3605D
:1018500012E7E36843F00203E360AB005919CA00E2
:101860003244916D013191652B44DA0032440623F4
:1018700082F85D302946306800F0B3FB8023A36016
:10188000FAE605EB8502D300334400229A65E3684B
:1018900043F00203E3602946306800F0A2FBD5E77D
:1018A00005EB8502D3003344032283F85D20E3680F
:1018B00043F00203E3602946306800F092FBC5E77D
:1018C000F8B5036803EB411303F5A064A26812F0B6
:1018D000040F24D10E460546A26812F0200F25D031
:1018E0002023A36001EB8102D3001A46034493F83E
:1018F0003D30012B19D18B000244002182F83D10AC
:101900003344DA000244022382F85C30E36843F097
:101910000203E3603146006800F063FB05E0042346
:10192000A360E36843F00203E360F8BDA26812F02D
:10193000400F34D1A26812F4007F4AD1A26812F09D
:10194000010F51D1A26812F0080F62D1A26812F003
:10195000100F6FD08A000A44D300034400229A6516
:10196000032283F85D2093F83D306BB901EB8102CF
:10197000D300034493F83C3033B901EB8102D30028
:101980000344012283F83D20E36843F00203E3604F
:101990003146286800F025FB1023A360C5E78B00C3
:1019A0005918CA000244042182F85D10012182F80E
:1019B0003D103344DA00024400239365E36843F0AA
:1019C0000203E3603146006800F00BFB4023A36094
:1019D000ABE7E36843F00203E360006800F001FB5B
:1019E0004FF40073A360A0E78F007A18D30003447C
:1019F00000229A65E36843F00203E360006800F0A8
:101A0000F0FA0123A360B919C800284480F85D30BA
:101A10008BE70823A360E36843F00203E3600068F8
:101A200000F0DFFA06EB8601C8002844052380F8A1
:101A30005D307AE7A26812F0800F36D1A26812F406
:101A4000806F43D1A26812F0020F3FF46EAFE268DC
:101A500022F00202E26001EB8101CA001146024459
:101A600092F85D20012A45D0032A62D0042A68D06A
:101A7000052A6ED0082A18BF062A44D1282101FB66
:101A800006018A6D01328A65032A68D90A46002157
:101A90009165042182F85C10D3F8002522F0804281
:101AA00042F00042C3F800252DE0E36843F0020352
:101AB000E360006800F095FA06EB8601CB002B444A
:101AC000062283F85D208023A3602EE7E36843F0BD
:101AD0000203E360006800F084FA1023A3604FF46F
:101AE0008063A36006EB8601CB002B44082283F8B9
:101AF0005D201AE70B460344012283F85C2093F82B
:101B00003F30022B0CD00223A36006EB8602D300E9
:101B10002B4493F85C2031462846FFF7ABF904E7E5
:101B20000B46034493F8512082F0010283F85120C0
:101B3000E9E706EB8602D3000344022283F85C2027
:101B4000E1E706EB8602D3000344022283F85C201F
:101B5000D9E7282303FB060383F85C20D3E7282278
:101B600002FB0602022182F85C1095E7F8B50446F4
:101B70000568284600F03CF9012800D0F8BD20682F
:101B800000F032F90028F9D0206800F02DF910F4A7
:101B9000001F03D023684FF400125A61206800F040
:101BA00023F910F4801F03D023684FF480125A6188
:101BB000206800F019F910F0806F03D023684FF00F
:101BC00080625A61206800F00FF910F0020F02D015
:101BD000236802225A61206800F006F910F0005FC5
:101BE00025D1206800F000F910F0807F31D1206805
:101BF00000F0FAF810F0080F2FD1206800F0F4F888
:101C000010F0007F30D1206800F0EEF810F0100FD7
:101C1000B4D02268936923F0100393612046FFF744
:101C200025FB2268936943F010039361A6E7D5F87A
:101C3000403423F02E03C5F840342046FFF714F952
:101C40000121206800F0D8F823684FF000525A6153
:101C5000C7E72046FFF75EFCC9E72046FFF7F8F824
:101C6000236808225A61C8E7206800F0B5F90746E2
:101C7000002604E0F1B22046FFF722FE0136A368F9
:101C8000B34212D906F00F0327FA03F313F0010F42
:101C9000F4D005EB4613D3F8003513F4004FE9D028
:101CA000F1B22046FFF7A0FCE8E723684FF000728E
:101CB0005A61A8E738B590F8B832012B0ED0044627
:101CC000012580F8B852006800F033F829462068F2
:101CD00000F0D1F8002084F8B80238BD0220FCE7FB
:101CE00090F8B832012B0BD010B50446012380F8D0
:101CF000B832006800F0A2FA002084F8B80210BDE3
:101D00000220704708B5006800F096F808BD01EBA6
:101D10008101CB00184490F85C00704701EB810111
:101D2000CB001844C06C704708B5006800F0C6F8D6
:101D300008BD836843F00103836000207047836817
:101D400023F001038360002070470000890141F007
:101D50002001016100230133054A934205D802693D
:101D600012F0200FF7D1002070470320704700BF0A
:101D7000400D03001023036100230133054A934201
:101D800005D8026912F0100FF7D100207047032028
:101D9000704700BF400D030070B49DF80C4064B95B
:101DA00003339D0807E000EB023303F5805351F83D
:101DB000046B1E600134AC42F5D3002070BC704748
:101DC00003329208002393420CD210B400F58054E1
:101DD000246841F8044B01339342F7D308465DF879
:101DE000044B70470846704742698069104070474D
:101DF000406900F00100704710B400F58064D0F82D
:101E0000003423F00303C0F80034D0F8003401F0AC
:101E100003021343C0F80034012905D0022907D07A
:101E200000205DF8044B70474BF680336360F7E7A2
:101E300041F270736360F3E730B583B00446002568
:101E40000195D0F840340193019B23F02E030193B8
:101E5000019B43F48073C0F84034642001F0B0FE6D
:101E6000019B23F48073C4F840340A2001F0A8FEDB
:101E7000284603B030BD82B000230193D0F840342F
:101E80000193019B23F02E030193019B13F4805FC8
:101E900001D101290CD0019B13F4805F05D021B939
:101EA000019B23F48053C0F84034002002B07047F7
:101EB000019B43F48053C0F84034ECE782B0002328
:101EC0000193D0F8403401930198C0F3414002B02F
:101ED0007047F0B506469DF8184000EB411505F532
:101EE000A0604FF0FF378760032C64D8DFE804F070
:101EF0000255021740F29D47C76012F0800F08D1CB
:101F0000B6F1A04F59D0C76847F06007C7600020FE
:101F10000CE0C76847F48077C760002006E040F215
:101F20009D67C76012F0800F31D1002006F5806EEA
:101F3000D6F8187401F00F014FF0010C0CFA01F102
:101F40003943C6F81814B16941F00071B16112F05B
:101F5000800F34D100269DF81410022932D00021C0
:101F60009B0503F0FE53D20202F4F0421343A20495
:101F700002F440221343BDF81C20C2F30A021343AB
:101F800033430B43C5F80035032C1ED0F0BDC768A2
:101F900047F48077C7600020C8E740F22527C76074
:101FA00012F0800F01D10020C0E7C76847F4C07766
:101FB000C7600020BAE70120B8E70020B6E74FF479
:101FC0000046C8E74FF40031CAE7D5F8003543F0C2
:101FD0000053C5F80035D9E700F58060406980B24C
:101FE000704710B400EB411101F5A062D1F8003543
:101FF000C3F38143022B14BF00240124002B14BF20
:10200000234601235BB3D1F8003543F08043C1F888
:102010000035C36A13F47F0F1AD1D1F8003523F0CD
:102020000043C1F80035D1F8003543F00043C1F852
:102030000035D1F8003523F40043C1F80035002302
:102040000133B3F57A7F36D811680029F8DB32E026
:10205000D1F8003543F00043C1F800352BE0D1F84A
:10206000003543F08043C1F80035D0F8103413F444
:102070007F0F1AD1D1F8003523F00043C1F80035A5
:10208000D1F8003543F00043C1F80035D1F80035F0
:1020900023F40043C1F8003500230133B3F57A7F00
:1020A00009D811680029F8DB05E0D1F8003543F0C4
:1020B0000043C1F8003500205DF8044B7047000074
:1020C00000EB4111064AC1F81025D1F8003523F084
:1020D000804343F00043C1F800350020704700BF43
:1020E0000000088070B582B04C78B0F1A04F07D0E6
:1020F0000B792BB912B94B79012B11D0012A13D0CE
:102100000B69E3B10D892B44013BB3FBF5F39BB2A3
:10211000B3F5807F14D92D020D614FF480730FE069
:102120002146FFF7CDFF75E000EB4413D3F80C55C3
:1021300025F06005C3F80C5500234B71E0E701233F
:10214000CD781DB10D8905FB03F50D610D69C5F352
:102150001205384E06EAC3432B438D7A6D0705F00E
:10216000C04500EB44142B43C4F8103512B1CB68C2
:10217000C4F8143500F58066B36813F0010FD4F885
:10218000003523F00053C4F80035D4F800350CBFF7
:102190004FF0005500252B43C4F80035D4F8005506
:1021A000254B1D601D6825F080451D60CB78C3B1AF
:1021B000214D2B6843F400432B601F4B1D6845F0F5
:1021C00000451D601B68C4F800351ABBCB780BBBFB
:1021D0000B69FBB1CA79032A14D8DFE802F0081EA4
:1021E000081E154D2B6823F400432B60E5E70333ED
:1021F000C26A92B2C3F38F039A4203D2836943F057
:1022000020038361CC684A780B8A00210091214623
:10221000FFF7C2FD002002B070BD0333326992B2F5
:10222000C3F38F039A42EDD2836943F080638361E5
:10223000E8E700BF0000F81F9800002070B50546D1
:102240000446FFF77CFD10212846FFF77FFD284656
:10225000FFF790FD00220AE004EB4211D1F80035AF
:1022600023F0802343F08043C1F8003501320F2A68
:10227000F2D90020034600E001300F2813D804EB08
:10228000401606F5A061D6F8002522F4004242F07F
:102290004042C6F800250133B3F57A7FECD80A68CE
:1022A000002AF8DBE8E74FF0FF33C5F814346B6120
:1022B0002846FFF73EFD002070BD00000649CB68B0
:1022C00023F4E0631B041B0C000200F4E0600343F2
:1022D000024A1A43CA60704700ED00E00000FA05A8
:1022E00030B4154BDB68C3F30223C3F10704042C9D
:1022F00028BF04241D1D062D14D9033B4FF0FF35C4
:1023000005FA04F421EA0401994005FA03F322EAEC
:1023100003031943002807DB0901C9B2074B19540D
:1023200030BC70470023E9E700F00F000901C9B293
:10233000034B1954F4E700BF00ED00E000E400E0B7
:1023400014ED00E000F01F02400901239340024A0F
:1023500042F82030704700BF00E100E00138B0F1E2
:10236000807F0AD2064B5860064AF02182F823107B
:102370000020986007221A6070470120704700BF54
:1023800010E000E000ED00E0042805D0054A1368E5
:1023900023F0040313607047024A136843F00403F8
:1023A0001360704710E000E0002857D010B50446D5
:1023B00090F84130002B41D0242384F8413022682A
:1023C000136823F0010313606368226823F07063CD
:1023D00013612268936823F400439360E368012B40
:1023E00031D0A368226843F404439360E368022B6E
:1023F0002FD0226851681A4B0B4353602268D36870
:1024000023F40043D360236962691343A1692268FE
:1024100043EA0123D360E369216A22680B43136016
:102420002268136843F001031360002060642023D6
:1024300084F84130206384F8420010BD80F84030B9
:10244000FEF73EFEB8E7A368226843F400439360BA
:10245000CCE723684FF400625A60CAE70120704756
:102460000080000290F84130DBB2202B24D190F89C
:102470004030012B22D0012380F84030242380F803
:1024800041300268136823F0010313600268136887
:1024900023F48053136002681368194311600268C3
:1024A000136843F001031360202380F841300023B8
:1024B00080F840301846704702207047022070476D
:1024C00090F84130DBB2202B22D190F84030012B24
:1024D00020D0012380F84030242380F84130026866
:1024E000136823F0010313600268136823F4706318
:1024F00043EA012111600268136843F0010313608D
:10250000202380F84130002380F84030184670477F
:10251000022070470220704770470268D36843F07A
:102520000103D3600268136843F0010313600020C5
:102530007047704770477047704710B5044603688E
:102540001A6912F0020F11D0DA6812F0020F0DD0E2
:102550006FF002021A610123037703689B6913F08D
:10256000030F79D0FFF7E6FF0023237723681A696A
:1025700012F0040F12D0DA6812F0040F0ED06FF0D0
:1025800004021A610223237723689B6913F4407FB6
:1025900068D02046FFF7CEFF0023237723681A690F
:1025A00012F0080F12D0DA6812F0080F0ED06FF098
:1025B00008021A61042323772368DB6913F0030FF1
:1025C00057D02046FFF7B6FF0023237723681A6908
:1025D00012F0100F12D0DA6812F0100F0ED06FF058
:1025E00010021A61082323772368DB6913F4407F04
:1025F00046D02046FFF79EFF0023237723681A6901
:1026000012F0010F03D0DA6812F0010F3FD12368F6
:102610001A6912F0800F03D0DA6812F0800F3DD1F2
:1026200023681A6912F4807F03D0DA6812F0800FF1
:102630003BD123681A6912F0400F03D0DA6812F018
:10264000400F39D123681A6912F0200F03D0DA68DD
:1026500012F0200F37D110BDFFF76BFF2046FFF7B8
:102660006AFF81E72046FFF764FF2046FFF763FF1C
:1026700092E72046FFF75DFF2046FFF75CFFA3E7E8
:102680002046FFF756FF2046FFF755FFB4E76FF0EF
:1026900001021A612046FEF791F8B8E76FF0800258
:1026A0001A61204600F0B6F8BAE76FF080021A61AE
:1026B000204600F0AFF8BCE76FF040021A612046F8
:1026C000FFF73AFFBEE76FF020021A61204600F0E4
:1026D000A0F8C0E770B403683A4CA04214BF0024CD
:1026E0000124B0F1804F14BF224644F00102AAB980
:1026F000354DA84214BF00250125344EB0420DD0FF
:1027000065B905F1804505F58235A84214BF00255D
:10271000012506F50066B04200D01DB123F070031C
:102720004D682B43002A33D1274A904214BF002220
:102730000122264DA8422BD052BB02F1804202F565
:102740008232904214BF0022012205F50065A842A2
:102750001ED0EAB91E4A904214BF0022012205F59C
:102760009A35A84214D09AB91A4A904214BF00224E
:10277000012205F50065A8420AD04AB9164A9042DE
:1027800014BF00220122A5F59635A84200D01AB147
:1027900023F44073CA68134323F080034A69134348
:1027A00003608A68C2620A6882620C4B984214BF56
:1027B000234644F001030BB10B690363012343611A
:1027C00070BC704700000140000800400004004059
:1027D0000044014000180040002000400004014077
:1027E000A8B110B5044690F83D305BB1022384F8DF
:1027F0003D30211D2068FFF76DFF012384F83D3037
:10280000002010BD80F83C30FFF786FEEEE7012087
:102810007047704770472DE9F04105460F46164650
:102820009846069C2B68DB6937EA03030CBF01233B
:102830000023B3421DD1B4F1FF3FF3D02CB101F01E
:10284000B9F9A0EB0800A042ECD32A68136823F47E
:10285000D07313602A68936823F0010393602023E8
:1028600085F8693085F86A30002385F868300320E0
:1028700000E00020BDE8F08110B5044683680269DD
:10288000134342691343C2691343016808689D4AB0
:10289000024013430B602268536823F44053E168FD
:1028A0000B435360A369226A1A4321688B6823F49F
:1028B000306313438B602368934A934219D0934A41
:1028C00093422AD0924A934240D0924A934255D0A2
:1028D000914A93426AD0914A934200F08280904A92
:1028E000934200F099808F4A934200F0B08010220A
:1028F000C9E002F59432D2F8902002F00302032AD4
:1029000003D8DFE802F0BF0604081022BBE0022271
:10291000B9E00422B7E00822B5E002F5FA32D2F8B5
:10292000902002F00C020C2A08D8DFE802F0BA0767
:1029300007070B070707090707070D001022A2E08A
:102940000222A0E004229EE008229CE002F5F83278
:10295000D2F8902002F03002102A0DD005D9202A9A
:1029600008D0302A04D108228DE00AB900228AE07A
:10297000102288E0022286E0042284E002F5F6328A
:10298000D2F8902002F0C002402A0DD005D9802A4A
:1029900008D0C02A04D1082275E00AB9002272E0EA
:1029A000102270E002226EE004226CE002F5F432A4
:1029B000D2F8902002F44072B2F5807F0FD007D990
:1029C000B2F5007F09D0B2F5407F04D108225AE069
:1029D0000AB9002257E0102255E0022253E00422F7
:1029E00051E002F59232D2F8902002F44062B2F542
:1029F000806F0FD007D9B2F5006F09D0B2F5406FE4
:102A000004D108223FE00AB901223CE010223AE05A
:102A1000022238E0042236E002F5E032D2F89020BB
:102A200002F44052B2F5805F0FD007D9B2F5005FD3
:102A300009D0B2F5405F04D1082224E00AB900228F
:102A400021E010221FE002221DE004221BE002F51B
:102A5000DE32D2F8902002F44042B2F5804F0FD01F
:102A600007D9B2F5004F09D0B2F5404F04D1082282
:102A700009E00AB9002206E0102204E0022202E086
:102A8000042200E00122E169B1F5004F0BD0082AD1
:102A900000F29B80DFE802F0616D79998399999942
:102AA0008F000022EFE7082A54D8DFE802F005176C
:102AB00022533F5353534A0000F056FC62685308B8
:102AC00003EB4003B3FBF2F39BB2002023F00F02B1
:102AD000C3F3420313432268D36010BD00F054FCDB
:102AE0006268530803EB4003B3FBF2F39BB2002090
:102AF000ECE762680C4B03EB5203B3FBF2F39BB2BF
:102B00000020E3E7F369FFEF0010014000440040BC
:102B100000480040004C00400050004000140140BC
:102B200000780040007C00400048E80100F0F8FA1E
:102B30006268530803EB4003B3FBF2F39BB200203F
:102B4000C4E76268530803F58033B3FBF2F39BB22A
:102B50000020BBE701200023B8E700F005FC636814
:102B600000EB5300B0FBF3F0236880B2D860002084
:102B7000B3E700F009FC636800EB5300B0FBF3F02F
:102B8000236880B2D8600020A7E76168104A02EB92
:102B90005102B2FBF1F292B2DA6000209DE700F040
:102BA000BFFA636800EB5300B0FBF3F0236880B218
:102BB000D860002091E761684A0802F50042B2FB44
:102BC000F1F292B2DA60002087E7012085E700BFCA
:102BD0000024F400436A13F0010F06D00268536822
:102BE00023F40033816A0B435360436A13F0020FEE
:102BF00006D00268536823F48033C16A0B435360E4
:102C0000436A13F0040F06D00268536823F480234C
:102C1000016B0B435360436A13F0080F06D0026840
:102C2000536823F40043416B0B435360436A13F032
:102C3000100F06D00268936823F48053816B0B4316
:102C40009360436A13F0200F06D00268936823F460
:102C50000053C16B0B439360436A13F0400F0AD0DB
:102C60000268536823F48013016C0B435360036CB8
:102C7000B3F5801F0BD0436A13F0800F06D00268B3
:102C8000536823F40023816C0B4353607047026840
:102C9000536823F4C003416C0B435360EBE710B55A
:102CA00082B004460023C36600F084FF22681268E5
:102CB00012F0080F09D1202384F8693084F86A30B3
:102CC000002084F8680002B010BD6FF07E430093CE
:102CD000034600224FF400112046FFF79CFD002818
:102CE000E9D00320EFE778B310B5044690F86930D7
:102CF0000BB3242384F869302268136823F001039E
:102D000013602046FFF7B8FD012813D0636ABBB9F2
:102D10002268536823F4904353602268936823F039
:102D20002A0393602268136843F00103136020466E
:102D3000FFF7B5FF10BD80F86830FEF7E9F9D8E776
:102D40002046FFF747FFE3E701207047002800F027
:102D5000DB8170B582B00446036813F0010F29D0FF
:102D6000A24B9B6803F00C03042B1AD09F4B9B686B
:102D700003F00C03082B0FD06368B3F5803F40D0FD
:102D8000002B54D1994B1A6822F480321A601A68C9
:102D900022F480221A6039E0944B5B6813F4800FB0
:102DA000EAD0924B1B6813F4003F03D06368002BFA
:102DB00000F0AC81236813F0020F75D08B4B9B6839
:102DC00013F00C0F5ED0894B9B6803F00C03082BAB
:102DD00053D0E368002B00F08A80844A136843F0E4
:102DE0000103136000F0E6FE0546804B1B6813F0FC
:102DF000020F73D100F0DEFE401B0228F5D903203C
:102E000087E17A4A136843F48033136063682BB315
:102E100000F0D0FE0546754B1B6813F4003FC9D186
:102E200000F0C8FE401B6428F5D9032071E1B3F51A
:102E3000A02F09D06D4B1A6822F480321A601A68EC
:102E400022F480221A60E1E7684B1A6842F480227B
:102E50001A601A6842F480321A60D7E700F0AAFEBE
:102E60000546624B1B6813F4003FA3D000F0A2FE9E
:102E7000401B6428F5D903204BE15C4B5B6813F4DD
:102E8000800FA6D1594B1B6813F0020F04D0E368E2
:102E9000012B01D001203CE1544A136823F0F803D0
:102EA000216943EAC1031360236813F0080F46D079
:102EB000636983B34D4A536F43F00103536700F0D6
:102EC00079FE0546494B5B6F13F0020F37D100F0D6
:102ED00071FE401B0228F5D903201AE1434A13680A
:102EE00023F0F803216943EAC1031360DCE73F4A9A
:102EF000136823F00103136000F05CFE05463B4BB2
:102F00001B6813F0020FCFD000F054FE401B0228C4
:102F1000F5D90320FDE0354A536F23F001035367D1
:102F200000F048FE0546314B5B6F13F0020F06D0F0
:102F300000F040FE401B0228F5D90320E9E0236899
:102F400013F0040F7ED0294B1B6C13F0805F1ED151
:102F5000264B1A6C42F080521A641B6C03F08053AB
:102F60000193019B0125224B1B6813F4807F10D035
:102F7000A368012B21D0002B3CD11C4B1A6F22F0EF
:102F800001021A671A6F22F004021A671AE000257C
:102F9000E9E7174A136843F48073136000F00AFEF0
:102FA0000646134B1B6813F4807FE1D100F002FE4C
:102FB000801B6428F5D90320ABE00C4A136F43F063
:102FC00001031367A3685BB300F0F4FD0646074BEB
:102FD0001B6F13F0020F34D100F0ECFD801B41F2A7
:102FE00088339842F3D9032093E000BF00380240B1
:102FF00000700040052B09D0484B1A6F22F00102E7
:103000001A671A6F22F004021A67DBE7434B1A6F44
:1030100042F004021A671A6F42F001021A67D1E700
:1030200000F0C8FD06463D4B1B6F13F0020F08D0A1
:1030300000F0C0FD801B41F288339842F3D9032091
:1030400067E0F5B9A369002B62D0344A926802F0B8
:103050000C02082A5FD0022B19D0304A136823F0E3
:103060008073136000F0A6FD04462C4B1B6813F020
:10307000007F47D000F09EFD001B0228F5D90320F9
:1030800047E0264A136C23F080531364DAE7234A9F
:10309000136823F08073136000F08CFD05461F4B0E
:1030A0001B6813F0007F06D000F084FD401B02284F
:1030B000F5D903202DE0E369226A1343626A43EAEB
:1030C0008213A26A5208013A43EA0243E26A43EADF
:1030D000026343F00053114A5360136843F0807356
:1030E000136000F067FD04460C4B1B6813F0007F73
:1030F00006D100F05FFD001B0228F5D9032008E08F
:10310000002006E0002004E001207047012000E0DC
:10311000002002B070BD0120FBE700BF0038024074
:10312000324B9B6803F00C03042B5CD0082B01D0BE
:103130002F4870472DE9F04B2C4B5A6802F03F02A4
:103140005B6813F4800F2BD0284B5B68C3F38813A4
:103150001E4600275C010025E41A65EB0705A9015E
:1031600041EA9461A001001B61EB0501CB0043EA39
:103170005073C400A01943EB07014B0243EAD0533C
:103180004402204619460023FDF7BAF8174B5B6846
:10319000C3F3014301335B00B0FBF3F0BDE8F08BF8
:1031A000124B5B68C3F388131E4600275C010025A1
:1031B000E41A65EB0705A90141EA9461A001001B2F
:1031C00061EB0501CB0043EA5073C400A01943EB47
:1031D00007018B0243EA90538402204619460023DC
:1031E000FDF78EF8D2E70348704700BF0038024071
:1031F0000024F40000127A00002800F0A28070B5CC
:103200000446524B1B6803F00F038B420CD24F4A0B
:10321000136823F00F030B431360136803F00F03CD
:103220008B4201D0012070BD236813F0020F17D02C
:1032300013F0040F04D0464A936843F4E0539360BC
:10324000236813F0080F04D0414A936843F46043A5
:1032500093603F4A936823F0F003A06803439360B0
:103260000D46236813F0010F31D06368012B20D085
:10327000022B25D0364A126812F0020F63D034496F
:103280008A6822F0030213438B6000F093FC064629
:103290002F4B9B6803F00C036268B3EB820F16D0D0
:1032A00000F088FC801B41F288339842F0D903205B
:1032B000B9E7274A126812F4003FE0D10120B2E7D3
:1032C000234A126812F0007FD9D10120ABE71F4BCF
:1032D0001B6803F00F03AB420CD91C4A136823F0A0
:1032E0000F032B431360136803F00F03AB4201D0AD
:1032F000012098E7236813F0040F06D0144A93685E
:1033000023F4E053E1680B439360236813F0080F44
:1033100007D00F4A936823F46043216943EAC1034D
:103320009360FFF7FDFE0A4B9B68C3F30313094A42
:10333000D35CD840084B18600020FDF711FF002037
:1033400071E70120704701206DE700BF003C02409B
:1033500000380240088E000804000020014B186865
:10336000704700BF0400002008B5FFF7F7FF044BCB
:103370009B68C3F38223034AD35CD84008BD00BFD7
:1033800000380240188E000808B5FFF7E7FF044B2D
:103390009B68C3F34233034AD35CD84008BD00BFE7
:1033A00000380240188E00080F2303600B4B9A6808
:1033B00002F0030242609A6802F0F00282609A68AA
:1033C00002F4E052C2609B68DB0803F4E05303613F
:1033D000034B1B6803F00F030B607047003802407B
:1033E000003C0240F0B583B00446036813F0010FBF
:1033F0000CD0AF4B9A6822F400029A609A68416B35
:103400000A439A60436BC3B1002600E0002623689C
:1034100013F4002F15D0A64AD2F88C3023F44013B1
:10342000E16B0B43C2F88C30E36BB3F5801F06D021
:10343000002B00F01B81002504E00126E7E70126B0
:10344000F6E70025236813F4801F0FD0984AD2F8BE
:103450008C3023F44003216C0B43C2F88C30236C76
:10346000B3F5800F00F0048103B90125236813F040
:10347000807F00D0012613F0200F40F0FB802368EE
:1034800013F0100F0CD08A4BD3F88C2022F08072EE
:10349000C3F88C20D3F88C20A16B0A43C3F88C208E
:1034A000236813F4804F08D0814AD2F8903023F477
:1034B0004033616E0B43C2F89030236813F4004F21
:1034C00008D07B4AD2F8903023F44023A16E0B43FE
:1034D000C2F89030236813F4803F08D0744AD2F8C1
:1034E000903023F44013E16E0B43C2F89030236810
:1034F00013F4003F08D06E4AD2F8903023F4400312
:10350000216F0B43C2F89030236813F0400F08D0AE
:10351000674AD2F8903023F00303616C0B43C2F882
:103520009030236813F0800F08D0614AD2F89030B1
:1035300023F00C03A16C0B43C2F89030236813F402
:10354000807F08D05A4AD2F8903023F03003E16CE3
:103550000B43C2F89030236813F4007F08D0544A1C
:10356000D2F8903023F0C003216D0B43C2F89030A5
:10357000236813F4806F08D04D4AD2F8903023F4BA
:103580004073616D0B43C2F89030236813F4006FF1
:1035900008D0474AD2F8903023F44063A16D0B4322
:1035A000C2F89030236813F4805F08D0404AD2F804
:1035B000903023F44053E16D0B43C2F89030236800
:1035C00013F4005F08D03A4AD2F8903023F4404315
:1035D000216E0B43C2F89030236813F4800F08D09B
:1035E000334AD2F8903023F08063A16F0B43C2F8C6
:1035F0009030236813F4001F0DD02D4AD2F890307C
:1036000023F00063E16F0B43C2F89030E36FB3F136
:10361000006F00F09980236813F0080F00D0012597
:1036200013F4802F08D0224AD2F8903023F0407350
:10363000616F0B43C2F89030236813F4000F09D078
:103640001B4AD2F8903023F08053D4F880100B43FB
:10365000C2F89030002E79D12368B3F1007F75D085
:10366000002D40F00681002003B0F0BD0125E9E601
:103670000126F9E60E4B1A6C42F080521A641B6C5C
:1036800003F080530193019B0A4A136843F480734B
:10369000136000F08FFA0746064B1B6813F4807F17
:1036A0000AD100F087FAC01B6428F5D90320DBE7B4
:1036B0000038024000700040B34B1B6F13F440739E
:1036C00015D0226B02F440729A4210D0AE4B1A6FA2
:1036D00022F44072196F41F480311967196F21F497
:1036E000803119671A671B6F13F0010F12D1236B1A
:1036F00003F44072B2F5407F1DD0A34A936823F4CF
:10370000F8139360A0490B6F226BC2F30B021343B3
:103710000B67B4E600F04EFA07469B4B1B6F13F0A5
:10372000020FE4D100F046FAC01B41F28833984200
:10373000F3D9032098E79448826822F4F812934959
:1037400019400A438260DDE7012564E78E4A136869
:1037500023F08063136000F02DFA06468A4B1B6845
:1037600013F0006F06D000F025FA801B6428F5D90D
:10377000032079E7236813F0010F13D0636B8BB933
:10378000814AD2F88430D2F88410606803F4403360
:1037900043EA801301F070610B43A16843EA0173AF
:1037A000C2F88430236813F4002F03D0E26BB2F523
:1037B000801F06D013F4801F1ED0236CB3F5800F3A
:1037C0001AD1714AD2F88430D2F88410606803F4B8
:1037D000403343EA8013E06843EA006301F0E041CC
:1037E0000B43C2F88430D2F88C3023F01F03616A97
:1037F00001390B43C2F88C30236813F0807F11D05D
:10380000614AD2F88400D2F88410666823691B04E8
:1038100043EA861300F07060034301F0E0410B437C
:10382000C2F88430236813F0007F0DD062682369EA
:103830001B0443EA8213E26843EA0263A26843EA94
:103840000273514AC2F884304F4A136843F08063D0
:10385000136000F0AFF906464B4B1B6813F0006F86
:103860007FF4FEAE00F0A6F9801B6428F4D9032093
:10387000FAE6454A136823F08053136000F09AF982
:103880000546414B1B6813F0005F06D000F092F92B
:10389000401B6428F5D90320E6E6236813F4002FC3
:1038A00001D0E26B22B113F4801F1DD0236CDBB971
:1038B000354AD2F88830D2F88810606903F4403372
:1038C00043EA8013A06943EA006301F0E0410B433F
:1038D000C2F88830D2F88C3023F4F853A16A013949
:1038E00043EA0123C2F88C30236813F4001F03D08D
:1038F000E36FB3F1006F31D0236813F0080F19D0D4
:10390000214AD2F88810D2F88830606903F4403335
:1039100043EA801301F070610B43E16943EA0173EC
:10392000C2F88830D2F88C3023F44033E16A0B437C
:10393000C2F88C30144A136843F08053136000F0CF
:1039400039F90446104B1B6813F0005F19D100F0E1
:1039500031F9001B6428F5D9032085E60A4AD2F81C
:103960008800D2F888106569236A1B0443EA85132E
:1039700000F07060034301F0E0410B43C2F888306F
:10398000BAE7002070E600BF00380240FFFCFF0FDE
:1039900000230F2B00F2E280F0B482B039E009225C
:1039A00000E00022B2403A4302346D4E46F8242033
:1039B0006C4A1468EA4302EA04064F6817F4803F31
:1039C00001D045EA0406674C2660646802EA0406F2
:1039D0004F6817F4003F01D045EA0406614C666069
:1039E000A46802EA04064F6817F4801F01D045EA74
:1039F00004065C4CA660E46822404E6816F4001F82
:103A000001D045EA0402574CE26001330F2B00F26B
:103A1000A28001229A400C6804EA0205AA42F4D16D
:103A20004C68122C18BF022C10D1DE08083650F852
:103A300026C003F00704A7000F24BC402CEA040CA6
:103A40000C69BC4044EA0C0440F8264004685F005E
:103A50000326BE40F64306EA040C4C6804F0030457
:103A6000BC4044EA0C0404604C6804F1FF3C112C97
:103A700018BFBCF1010F01D9122C11D1846806EADC
:103A8000040CCC68BC4044EA0C048460446824EA1A
:103A9000020C4C68C4F300129A4042EA0C024260E5
:103AA000C26816408A68BA403243C2604A6812F05F
:103AB000805FAAD02C4A546C44F480445464526C05
:103AC00002F480420192019A9C08A61C244A52F8F2
:103AD000267003F0030296000F22B24027EA020785
:103AE000224A90423FF45DAF02F58062904222D0BC
:103AF00002F58062904220D002F5806290421ED092
:103B000002F5806290421CD002F5806290421AD089
:103B100002F58062904218D002F58062904216D081
:103B200002F58062904214D002F5806290423FF428
:103B300036AF0A2236E7012234E7022232E70322B7
:103B400030E704222EE705222CE706222AE7072287
:103B500028E7082226E702B0F0BC7047704700BF94
:103B600000380140003C01400038024000000240A3
:103B700012B90904816170478161704743695940F6
:103B80004161704708B50320FEF798FB0020FDF760
:103B9000E7FAFDF74DFA002008BD0000034A11685E
:103BA000034B1B780B441360704700BF94780020D0
:103BB00000000020014B1868704700BF9478002077
:103BC00038B50446FFF7F6FF0546B4F1FF3F02D0D3
:103BD000044B1B781C44FFF7EDFF401BA042FAD3B7
:103BE00038BD00BF0000002010B40F4AD2F8883062
:103BF00043F47003C2F888300C4B196841F001019E
:103C00001960002098601C68094921401960094921
:103C10005960196821F480211960D8604FF0006361
:103C200093605DF8044B704700ED00E000380240FF
:103C3000FFFFF6FE1030002410B582B00C4602A83B
:103C4000002340F8043D012102F028FE20600030EE
:103C500018BF012002B010BD08B502F09BFE012084
:103C600008BD08B54FF47A7102F02CFE08B90120A6
:103C700008BD0020FCE708B502F05EFE08BD0000AC
:103C800008B5044B03EB8002526852680344187A6B
:103C9000904708BDC400002008B5084B1B5C53B911
:103CA000064B01221A5403EB800252681268184432
:103CB000007A904708BD0020FCE700BFC400002048
:103CC00038B5044C04EB80056D68AD680444207A77
:103CD000A84738BDC400002038B5044C04EB80056B
:103CE0006D68ED680444207AA84738BDC400002000
:103CF00010B5044B03EB8004646824690344187A0C
:103D0000A04710BDC40000204278007840EA02209D
:103D10007047C278837843EA0222437843EA022359
:103D2000007840EA032070470170090A417070472B
:103D30000170C1F307234370C1F307438370090E79
:103D4000C170704713462AB10A7802700130013100
:103D5000013BF9D1704701700130013AFBD1704746
:103D600030B4451C037808781B1A013A04D04C1C67
:103D700028462146002BF4D0184630BC704700E09E
:103D8000013003780BB18B42FAD11846704700001E
:103D900030B400252B4601E001250133012B15D855
:103DA0001A01174CA258002AF6D00468A242F4D196
:103DB000134A02EB0312546882689442EDD1104A10
:103DC00002EB0312946842699442E6D1022B0AD0B6
:103DD000A1B90B4A02EB03139B89B3F5807F09D08D
:103DE000002030BC7047022908BF45F001051DB115
:103DF0000020F6E71020F4E71220F2E71020F0E7A9
:103E0000A0000020002000E00130012804D80301B8
:103E1000034AD358002BF7D1023818BF012070474E
:103E2000A000002070B4002300E00133012B13D860
:103E30001A01244CA45802689442F6D1214A02EB9C
:103E40000312546882689442EFD11E4A02EB0312B7
:103E5000946842699442E8D1022B29D021B1194AD1
:103E600002EB0312928952BB21BB164A02EB0312EA
:103E70009189013189B2134A02EB03129181581CD6
:103E800070BC70470133012B04D81A010D4CA258A5
:103E9000002AF7D1022B10D006680A4D1C012A19FE
:103EA0002E51846854604069906000209081D5E76D
:103EB0000023E8E74FF48071DDE70020E0E7002011
:103EC000DEE700BFA00000200138012815D80D4B07
:103ED00003EB00139B89B3F5807F03D01BB1013B3B
:103EE0009BB200E00023074A02EB0012938133B932
:103EF00003010020034AD050704702207047002081
:103F0000704700BFA0000020002303E05DF8044BD1
:103F100070470133012B11D81A0109498A5882428E
:103F2000F7D110B41A0100248C500133012BEDD8C5
:103F30001A0103498A588242F7D1F3E7704700BF5C
:103F4000A000002002398369023B8B4204D94389D7
:103F5000C06A01FB03007047002070470268C36A13
:103F60000433490A5289B1FBF2F1186830B1814239
:103F700002D3091A0833F8E758680844704770B547
:103F800006460D4601F11A00FFF7BEFE3378032BFB
:103F900000D070BD044605F11400FFF7B5FE44EAF9
:103FA0000040F6E770B506460C46154691B204F19E
:103FB0001A00FFF7B9FE3378032B00D070BD290C2F
:103FC00004F11400FFF7B0FEF8E700234B72C36959
:103FD00073B370B50022134605E0092C0ED08D187E
:103FE0006B72013223460A2B0DD8056A5C1CEB5C10
:103FF000202BF7D0052BF0D1E523EEE78D182E26E8
:104000006E720132EBE70D4604460A4400235372F8
:10401000036ADB7A0B72006A1C30FFF77AFE2860B5
:10402000206A1630FFF775FEE880000CA88070BD8E
:10403000704700002DE9F84F82468B46D1F800808A
:1040400000F124090B2220214846FFF784FE0025B9
:104050002B46082729E0013618F806305C2B18BFDC
:104060002F2BF8D04644CBF80060002D45D09AF8AD
:104070002430E52B36D0202C38D804238AF82F3072
:10408000002036E014F0800F28D121461C48FFF7AD
:1040900076FE80BBA4F16103DBB2192B01D8203C72
:1040A000E4B209F80540013533465E1C18F80340B8
:1040B000202CD7D95C2C18BF2F2CCDD02E2C18BF7C
:1040C000AF42DFD82E3C18BF01240B2F14BF274668
:1040D00044F0010767B908250B27E5E7803C094B49
:1040E0001C5DD2E705238AF82430C4E70023C5E726
:1040F0000620BDE8F88F0620FBE70620F9E700BFA1
:10410000A08E0008208E0008016809B10A4603E06D
:104110004FF0FF3308E0013213783A2B18BF202B01
:10412000F9D83A2B02D000231846704710B44C1C23
:104130000B78303B092B98BFA24206D143B901321C
:10414000026018465DF8044B70474FF0FF33F8E704
:104150004FF0FF33F5E708B530B1C068FFF781FDD8
:10416000034610B1012300E00023184608BD38B50E
:104170000D4640B1044603682BB11A781AB1D988AC
:104180008288914203D000232B60092038BD5878E3
:10419000FFF776FD10F0010FF5D123682B60206842
:1041A000FFF7D9FF08B10020F0E70F20EEE7F8B5E0
:1041B000C3780BB90020F8BD0446056B00F1340745
:1041C00001232A4639464078FFF786FDA8B9002327
:1041D000E370636AEB1AE269934210D2A678012E6B
:1041E00009D9E3691D4401232A4639466078FFF75F
:1041F00073FD013EF3E70020DDE70120DBE700204F
:10420000D9E770B5036B8B4212D004460D46FFF719
:10421000CEFF064668B901232A4604F134016078CE
:10422000FFF74EFD10B101264FF0FF35256300E08A
:104230000026304670BD000010B504460023C37050
:104240004FF0FF330363FFF7DCFF18BB04F23220AB
:10425000FFF75AFD4AF6552398421DD194F83430A1
:10426000E92B05D0636B03F0FF130F4A934215D17E
:1042700004F16A00FFF74DFD20F07F400B4B9842A0
:104280000ED004F18600FFF744FD094B984209D196
:10429000002002E0042000E0032010BD0220FCE723
:1042A0000020FAE70220F8E7EB00900046415400B6
:1042B000464154332DE9F04784B00E46174600239B
:1042C0000B60FFF721FF051EC0F24A81BA4B53F87D
:1042D0002540002C00F046812046FFF73CFF0028D7
:1042E00000F04481346007F0FE07237873B16078F2
:1042F000FFF7C6FC10F0010F08D1002F00F0388145
:1043000010F0040F40F0368100202CE100232370D0
:10431000E8B26070FFF7C0FC10F0010F40F02C8194
:104320001FB110F0040F40F0298100212046FFF753
:1043300083FF022800F0B6800026042800F02081C8
:10434000012800F21F8104F13F00FFF7DDFCB0F50A
:10435000007F40F0198104F14A00FFF7D5FC0746C1
:1043600020B904F15800FFF7D4FC0746E76194F840
:104370004420A270531EDBB2012B00F2078107FB21
:1043800002F594F84180A4F80A80B8F1000F00F01B
:10439000FF8008F1FF3318EA030F40F0FB8004F1BF
:1043A0004500FFF7B1FC8246208110F00F0F40F06E
:1043B000F38004F14700FFF7A7FC814620B904F120
:1043C0005400FFF7A6FC814604F14200FFF79CFC75
:1043D0000146002800F0E280421902EB1A129145D2
:1043E000C0F0DE80A9EB0203B3FBF8F3002B00F072
:1043F000D9804FF6F57083426CD94FF0030940F62F
:10440000F570834201D84FF0010903F10208C4F8A6
:10441000188026628B1963623244E262B9F1030F9D
:104420005BD0BAF1000F00F0C3802B44A362B9F156
:10443000020F63D008EB480208F0010303EB5203BC
:1044400003F2FF13B7EB532FC0F0B4804FF0FF33EC
:104450006361236180232371B9F1030F51D084F884
:104460000090564A138801339BB21380E3802046A4
:10447000FFF74AFD002076E0002004AB03EB850344
:1044800043F8100C0135032D0ED804F134002B0134
:1044900003F5DF7318440379002BEDD00830FFF7E4
:1044A00038FCEAE70025EEE700250AE03146204621
:1044B000FFF7C2FE01287FF640AF0135032D3FF61E
:1044C0003CAF04AB03EB850353F8106C002EEDD129
:1044D0000320F2E74FF0020991E704F15E00FFF7D5
:1044E00013FC002860D1BAF1000F5FD104F1600025
:1044F000FFF70FFCA0624FEA8803A1E74FEA4803E9
:104500009EE704F16400FFF7FFFB0128A7D1711CAF
:104510002046FFF776FE0028A1D10023237104F284
:104520003220FFF7F1FB4AF65523984297D104F168
:104530003400FFF7EEFB224B984290D104F5067051
:10454000FFF7E7FB1F4B984289D104F50770FFF78F
:10455000E0FB606104F50870FFF7DBFB20617EE79C
:104560000B2000E00C2004B0BDE8F0870F20FAE734
:104570000020F8E70A20F6E70320F4E70A20F2E734
:104580000120F0E70D20EEE70D20ECE70D20EAE733
:104590000D20E8E70D20E6E70D20E4E70D20E2E737
:1045A0000D20E0E70D20DEE70D20DCE70D20DAE747
:1045B0000D20D8E70D20D6E79C000020C000002089
:1045C00052526141727241612DE9F04701297AD955
:1045D00083698B4279D917460C4606460378022B2D
:1045E00043D0032B54D0012B01D002256EE001EB08
:1045F0005108416A01EB5821FFF703FE05460028E8
:1046000064D106F1340A08F10109C8F3080814F06E
:1046100001041FD01AF9083003F00F033A0102F425
:104620007F621343DBB20AF808300123F370716A2A
:1046300001EB59213046FFF7E4FD0546002845D13E
:10464000C9F3080944B1C7F307120AF80920012386
:10465000F3703BE0FBB2E6E71AF9092022F00F0203
:10466000C7F303273A43D2B2EFE7416A01EB1421C3
:10467000FFF7C7FD054648BB06F13400640004F4AB
:10468000FF74B9B22044FFF74FFB0123F3701DE024
:10469000416A01EBD411FFF7B4FD0546B0B927F02C
:1046A000704706F13403A10001F4FE715C18204646
:1046B000FFF72FFB00F0704139432046FFF738FB2E
:1046C0000123F37002E0022500E002252846BDE840
:1046D000F087F8B50668012953D9B3698B4252D9DE
:1046E0000C463378022B2BD0032B39D0012B01D071
:1046F000012047E001EB5105716A01EB552130467D
:10470000FFF77FFD002840D16F1CC5F30805354435
:1047100095F83450716A01EB57213046FFF771FD6F
:10472000B0BBC7F30803334493F8340045EA0020D4
:1047300014F0010F01D0000924E0C0F30B0021E0C8
:10474000716A01EB14213046FFF75BFD18BB06F1DF
:104750003400610001F4FF710844FFF7D5FA11E05D
:10476000716A01EBD4113046FFF74BFDB0B9343616
:10477000A10001F4FE703044FFF7CBFA20F0704046
:1047800000E00120F8BD0120FCE74FF0FF30F9E721
:104790004FF0FF30F6E74FF0FF30F3E74FF0FF3018
:1047A000F0E72DE9F0410768B1F5001F3BD206465E
:1047B0000D4611F01F0F39D1716184681CB93B7827
:1047C000022B00D9BC6A94B93B89B3EB551F2FD992
:1047D000BB6AF361B461F36993B303EB5523F361EF
:1047E0003437C5F308053D44356200201CE0B7F8B6
:1047F0000A804FEA482845450FD321463046FFF747
:1048000068FF0446B0F1FF3F14D0012814D9BB69FA
:10481000834213D9A5EB0805EDE721463846FFF79B
:1048200091FBF061D6E70220BDE8F0810220FBE7B2
:104830000220F9E70120F7E70220F5E70220F3E77D
:104840000220F1E72DE9F04107460668884631B9B4
:1048500035698DB1B369AB420FD801250DE0FFF783
:1048600038FF034601284CD9B0F1FF3F4ED0B26962
:1048700082424BD8454600E001252C460CE02146FB
:104880003846FFF726FF034670B1B0F1FF3F18BF6F
:1048900001283BD0AC4238D00134B369A342EED8F2
:1048A000012D30D90224EAE74FF0FF32214630468D
:1048B000FFF78AFE024618F1000318BF0123002803
:1048C0000CBF1846002070B9A2B934617269B3698F
:1048D000023B9A4201D8013A7261337943F00103F5
:1048E0003371234612E0224641463046FFF76CFE04
:1048F0000246E9E7012A01D0012307E04FF0FF3328
:1049000004E0012302E0002300E000231846BDE894
:10491000F081F8B50E46056801292ED907461146E3
:10492000AB69B3422CD952B14FF0FF322846FFF7A2
:104930004BFE844618B125E02646A24222D93146D4
:104940003846FFF7C6FE0446F0B101281FD0B0F18B
:10495000FF3F1FD0002231462846FFF735FE844630
:1049600080B96B69AA69911E8B42E5D201336B61F4
:104970002B7943F001032B71DEE74FF0020C01E0CD
:104980004FF0020C6046F8BD4FF0000CFAE74FF014
:10499000020CF7E74FF0010CF4E72DE9F843066845
:1049A0004569C369002B6ED02035B5F5001F6CD268
:1049B00088460446C5F308073FB90133C3618169DE
:1049C00079B93389B3EB551F07D9656106F1340313
:1049D0003B4423620020BDE8F8830023C361042028
:1049E000F9E77389013B13EA5523EED1FFF771FE16
:1049F000814601284BD9B0F1FF3F4AD0B3698342C9
:104A000039D8B8F1000F11D0A1692046FFF71AFF7D
:104A1000814600283FD001283FD0B0F1FF3F3ED073
:104A20003046FFF7C4FB28B10120D4E70023E3613F
:104A30000420D0E74FF40072002106F13400FFF7A4
:104A40008AF949463046FFF77DFA30634FF0000897
:104A5000738998450BD20123F3703046FFF7A7FB0B
:104A6000F8B908F10108336B01333363F0E7336BB6
:104A7000A3EB08033363C4F8189049463046FFF7A8
:104A800061FAE061A1E70420A5E70420A3E7022082
:104A9000A1E701209FE707209DE702209BE7012077
:104AA00099E7012097E770B5044606680021FFF7F3
:104AB00078FE054640B1284670BD00212046FFF72C
:104AC0006CFF05460028F6D1E1693046FFF799FBF7
:104AD00005460028EFD1206A03787BB1C37A03F042
:104AE0003F03A371C37A13F0080FE6D10B2204F140
:104AF0002401FFF735F90028DFD1DCE70425DAE7E8
:104B000030B583B004460191056801E0013301939B
:104B1000019B1A785C2A18BF2F2AF7D00022A260C6
:104B20001B781F2B1ED901A92046FFF783FA0346E5
:104B300000BB2046FFF7B7FF94F82F200346E0B9EB
:104B400012F0040F16D1A37913F0100F1CD005F149
:104B500034016369C3F3080319442846FFF70FFAC9
:104B6000A060E0E7802384F82F3011462046FFF74D
:104B700018FE0346184603B030BD0428FAD112F0DF
:104B8000040FF7D10523F5E70523F3E7F8B504464D
:104B90000F4606680021FFF704FE0246B8B900255B
:104BA00006E0002501212046FFF7F7FE024670B916
:104BB000E1693046FFF725FB024640B9236A1B78BE
:104BC000002B18BFE52BECD10135BD42EAD1042AF8
:104BD00001D01046F8BD0722FBE770B50446066811
:104BE0000121FFF7D3FF054608B1284670BDE169F2
:104BF0003046FFF706FB05460028F6D120220021AB
:104C0000206AFFF7A8F80B2204F12401206AFFF7BD
:104C100099F80123F370E8E7F8B504460E460568F5
:104C2000042705E000212046FFF7B7FE0746E8B954
:104C3000E169D9B12846FFF7E4FA0746B0B9236A1B
:104C40001A7892B1DB7A03F03F03A371E52A18BF0B
:104C50002E2AE7D00F2BE5D023F02003082B14BF1A
:104C600000230123B342DDD100E004270FB100236C
:104C7000E3613846F8BD08B50246B1F10C0318BF30
:104C80000123002814BF1846002048B1B1F10F03DA
:104C900018BF01230B2903D013B1D068FEF7EBFF37
:104CA00008BD000070B50446FFF781FA054648B913
:104CB0002378032B08D0002211466078FFF718F8FC
:104CC00000B10125284670BD2379012BF3D104F1F1
:104CD00034064FF4007200213046FFF73CF84AF6E4
:104CE000552104F23220FFF71FF80F493046FFF735
:104CF0001FF80E4904F50670FFF71AF8616904F50C
:104D00000770FFF715F8216904F50870FFF710F830
:104D1000226A01322263012331466078FEF7DCFF0C
:104D200000232371C7E700BF525261417272416193
:104D300070B584B001900091144604A840F8041D99
:104D4000FFF7E2F9061E31DB1B4B53F8265045B145
:104D50002846FFF7D9F8E868FEF77EFF40B3002346
:104D60002B70019B3BB100221A7001990C31F0B2FB
:104D7000FEF762FFF0B1019B0F4A42F8263014F1B2
:104D8000FF3418BF0124002B08BF01241CB10024EC
:104D9000204604B070BD002201A96846FFF78AFAD8
:104DA000044601460198FFF766FFF1E70B24EFE7A1
:104DB0000224EDE70224EBE79C0000202DE9F043FC
:104DC00091B00191002800F019810546164602F0C5
:104DD0003F073A4603A901A8FFF76CFA044650B111
:104DE0000CB100232B6021460398FFF744FF2046B7
:104DF00011B0BDE8F083039B0493019904A8FFF769
:104E00007FFE044660B99DF93F30002B51DB37F03F
:104E1000010314BF0121002104A8FEF7B9FF0446D5
:104E200016F01C0F5BD0002C4FD0042C43D047F061
:104E30000807002C62D117F0080F5FD0FBF7B2FF14
:104E4000064601460C980E30FEF772FF31460C986C
:104E50001630FEF76DFF0C9B2022DA72039EDDF800
:104E6000308041463046FFF78AF8814600224146AD
:104E70003046FFF797F800210C981C30FEF758FFDA
:104E8000039B0122DA70B9F1000F37D0039B1E6B30
:104E90000022494604A8FFF73CFD044670BB31469A
:104EA0000398FFF7AEF9044609F1FF33039A136143
:104EB00024E00624B4E7FEF7A5FF08B91224B6E7FC
:104EC00004A8FFF78AFE0446B1E79DF8163013F0F8
:104ED000110F12D116F0040FABD008240EE06CB9FC
:104EE0009DF8163013F0100F4ED116F0020F05D0BA
:104EF00013F0010F02D0072416E00724A4B917F01D
:104F0000080F01D047F04007039B1B6B6B620C9BA3
:104F1000AB6237F0010314BF0121002104A8FEF7A2
:104F200081FF2861002867D0002C7FF459AF039ED1
:104F3000DDF8308041463046FFF721F8A86008F1DF
:104F40001C00FEF7E6FEE8600021E9622E60F388AF
:104F5000AB802F7569752962A96105F130064FF4A0
:104F600000723046FEF7F7FE17F0200F3FF438AF1F
:104F7000EF68002F3FF434AFAF61039BB3F80A80B2
:104F80004FEA4828A96806E00424CDE7B1F1FF3FC5
:104F900011D0A7EB0807474594BF00230123002C3D
:104FA00018BF00234BB12846FFF793FB01460128A9
:104FB000ECD80224EAE70124EBE7E961002C7FF456
:104FC0000FAFC7F30803002B3FF40AAFDDF80C80E6
:104FD0004046FEF7B7FF08B9022402E700EB57226C
:104FE0002A620123314698F80100FEF769FE002885
:104FF0003FF4F6AE0124F4E60224F1E60924F6E6D5
:105000002DE9F04F85B004468846164699460023A0
:10501000C9F80030019003A9FFF7A9F8009060B922
:10502000637D00934BB9237D13F0020F0DD0A3696C
:10503000F342C0F0CA80DE43C7E000990398FFF74F
:105040001AFE009805B0BDE8F08F07210398FFF71E
:1050500012FE07230093F4E7E36AA3B32046FEF7AA
:105060007DFF002800F0DE80012831D0B0F1FF3F45
:1050700039D0E061A36803B9A06094F91430002B23
:105080003CDBDDF80CB0E1695846FEF75BFF824679
:1050900000284CD0BA44750A6CD07B19BBF80A20A2
:1050A000934200D9D51B2B46524641469BF801003E
:1050B000FEF712FE002845D1216AA1EB0A01A942A0
:1050C0004BD36D0272E0E1690198FFF7BBFBC8E7C3
:1050D0004FF0020A84F815A051460398FFF7CBFD64
:1050E000CDF800A0ADE74FF0010A84F815A05146B5
:1050F0000398FFF7C0FDCDF800A0A2E70123226AC4
:1051000004F1300103984078FEF7E6FD20B9237DD5
:1051100003F07F032375B4E74FF0010A84F815A06C
:1051200051460398FFF7A7FDCDF800A089E74FF09F
:10513000020A84F815A051465846FFF79CFDCDF8A9
:1051400000A07EE74FF0010A84F815A051460398AD
:10515000FFF791FDCDF800A073E74FF4007208EB64
:10516000412104F13000FEF7EDFD237D03F07F03C4
:105170002375A6E7236A534503D0A269E3689A42E0
:105180003BD3C4F820A0A369C3F30803C3F500759B
:10519000AE4200D2354604F130002A46414618445A
:1051A000FEF7D0FD237D63F07F032375A844A36938
:1051B0002B44A361E268934238BF1346E360D9F8F9
:1051C00000302B44C9F80030761B5EB3A169C1F3EF
:1051D0000803002BD7D1039B5F89013F17EA5127B2
:1051E0007FF44BAF00297FF437AFA06800287FF42D
:1051F00038AF0198FFF726FB33E70123524604F14D
:1052000030019BF80100FEF75BFD0028B9D04FF09C
:10521000010A84F815A051460398FFF72CFDCDF83C
:1052200000A00EE7237D43F040032375002103987F
:10523000FFF721FD05E770B582B0054601A9FEF72D
:1052400096FF044678B92B7D13F0400F0BD013F076
:10525000800F0FD1FBF7A6FD0646696A0198FEF79D
:10526000D0FF0446D0B121460198FFF704FD204647
:1052700002B070BD01232A6A05F13001019840781F
:10528000FEF72AFD20B92B7D03F07F032B75E1E7A4
:1052900001210198FFF7EFFC0124E8E7AC6AE37A0B
:1052A00043F02003E372AA6821462868FEF77AFEDD
:1052B000E96804F11C00FEF73BFD314604F11600DD
:1052C000FEF736FD002104F11200FEF72DFD019BD3
:1052D0000122DA700198FFF7E5FC04462B7D23F0EC
:1052E00040032B75BFE730B583B00546FFF7A3FF3A
:1052F000044610B1204603B030BD01A92846FEF790
:1053000036FF04460028F5D12869FEF7DDFD044686
:1053100008B900232B6000210198FFF7ACFCE9E7F6
:1053200030B585B00191002841D00546002203A97F
:1053300001A8FEF7BFFF044648B10CB100232B6063
:1053400021460398FFF797FC204605B030BD039B2C
:105350002B6001992846FFF7D3FB044618BB95F94B
:105360002F30002B08DBAB7913F0100F1AD0296A0D
:105370000398FEF704FEA860039BDB88AB80002146
:105380002846FFF70EFA044668B9AB6813B9002344
:105390002B6108E000212846FEF744FD286110B982
:1053A0001224CAE70524042CC7D10524C6E7092422
:1053B000CAE730B583B0054601A9FEF7D8FE04461A
:1053C00040B9286948B90CB900232B600021019825
:1053D000FFF751FC204603B030BDFEF775FD0446D3
:1053E000F1E770B582B005460E4601A9FEF7BFFE93
:1053F000044690B9C6B100212846FFF70DFC0428E9
:1054000000D0B8B931462846FEF7DFFD0021284616
:10541000FFF7C3FA042800D0044621460198FFF79D
:105420002AFC204602B070BD00212846FFF7B9F9DA
:105430000446F2E70446F0E730B583B0054601A91B
:10544000FEF795FE044618BB6C7D0CBB2B7D13F05C
:10545000020F24D0AB69EA68934214D22BBB00221E
:10546000A9682846FFF755FA04460023AB60AB69EC
:10547000EB602B7D43F040032B7514B913F0800FC4
:105480002DD1002C3AD121460198FFF7F4FB03E01F
:1054900021460198FFF7EFFB204603B030BD0721FE
:1054A0000198FFF7E8FB0724F6E7E9692846FFF7CC
:1054B00010F9B0F1FF3F0ED001280ED0002CD6D14C
:1054C000019B9B698342D2D9EA6901462846FFF7CE
:1054D00020FA0446CBE70124EEE70224C7E70123C4
:1054E0002A6A05F1300101984078FEF7F5FB20B9F2
:1054F0002B7D03F07F032B75C3E701246C752146D8
:105500000198FFF7B8FBC7E7104B5B7ADBB930B403
:105510000E4B5D7AEDB200245C555D7A03EB850598
:105520006860587A184402725A7AD2B2501CC0B2DB
:10553000587230320A703A234B702F238B70CC7024
:10554000204630BC70470120704700BFC4000020D7
:1055500008B50022FFF7D8FF08BD0000124A12F07C
:10556000070F1ED0D11D21F00701C1F57053134460
:105570000A460E480260002141601344083B23F0B4
:1055800007030B48036059601960991A5160136052
:10559000084B1960084B1960084B4FF000421A6025
:1055A00070474FF47053E4E7D4000020E03C002043
:1055B000D0000020DC3C0020D83C0020D43C00205F
:1055C00010B4134B1A6882421BD359685C1884428A
:1055D00003D1406801445960184641684418A2420A
:1055E00013D10C4C2468A2420DD052681144416082
:1055F0001A6812680260984200D018605DF8044B87
:1056000070471346DEE70460F5E70260F3E700BF8A
:10561000E03C0020D000002070B5044600F04AFEB7
:105620003D4B1B68CBB13D4B1B681C4269D1BCB1E3
:10563000083414F0070F13D024F00704083404F0E2
:1056400007036BB14FF0500372B683F31188BFF3B9
:105650006F8FBFF34F8F62B6FEE7FFF77FFFE2E782
:10566000002C50D02E4B1B68A3424ED32D4B1D68EF
:1056700001E02B4615466A68A24202D22A68002A37
:10568000F7D1254A1268AA4241D01E6808362A6816
:105690001A606B681B1B102B12D9281910F0070F0A
:1056A0000AD04FF0500372B683F31188BFF36F8FA7
:1056B000BFF34F8F62B6FEE743606C60FFF780FF79
:1056C0006A6817490B689B1A0B60174909688B4277
:1056D00001D215490B60114B1B6813436B6000230B
:1056E0002B6000F07DFE16F0070F12D04FF0500334
:1056F00072B683F31188BFF36F8FBFF34F8F62B61B
:10570000FEE70026EDE70026EBE70026E9E70026A6
:10571000E7E7304670BD00BFD0000020D43C002039
:10572000D83C0020E03C0020DC3C0020002834D0A5
:1057300038B50446A0F1080550F8042C174909684B
:105740000A420AD14FF0500372B683F31188BFF3B7
:105750006F8FBFF34F8F62B6FEE750F8080C50B161
:105760004FF0500372B683F31188BFF36F8FBFF30E
:105770004F8F62B6FEE722EA010244F8042C00F0E3
:1057800099FD54F8041C064A13680B44136028461C
:10579000FFF716FF00F024FE38BD7047D43C002010
:1057A000D83C0020000000000000000000000000C5
:1057B000074B19680868B0E8F04F80F30988BFF319
:1057C0006F8F4FF0000080F311887047AFF30080B7
:1057D000F03C00204FF0500372B683F31188BFF302
:1057E0006F8FBFF34F8F62B60B4A1368013313609C
:1057F000012B00D07047094B1B6813F0FF0FF9D045
:105800004FF0500372B683F31188BFF36F8FBFF36D
:105810004F8F62B6FEE700BF0800002004ED00E0F5
:105820000A4B1B6853B94FF0500372B683F31188CB
:10583000BFF36F8FBFF34F8F62B6FEE7013B034AA2
:1058400013600BB983F31188704700BF0800002074
:10585000EFF30980BFF36F8F154B1A681EF0100F1E
:1058600008BF20ED108A20E9F04F10604DF8043D8C
:105870004FF0500072B680F31188BFF34F8FBFF323
:105880006F8F62B600F028FE4FF0000080F31188A1
:1058900008BC19680868B0E8F04F1EF0100F08BF88
:1058A000B0EC108A80F30988BFF36F8F704700BF98
:1058B000F03C002008B54FF0500372B683F3118816
:1058C000BFF36F8FBFF34F8F62B600F0FBFC18B1D0
:1058D000034B4FF080521A60002383F3118808BDF8
:1058E00004ED00E0EFF305830F2B11D9124A9B5C06
:1058F000DBB2124A12789A420AD94FF0500372B6BC
:1059000083F31188BFF36F8FBFF34F8F62B6FEE74B
:105910000B4B1B6803F4E0630A4A126893420AD9EE
:105920004FF0500372B683F31188BFF36F8FBFF34C
:105930004F8F62B6FEE77047F0E300E0E83C0020DE
:105940000CED00E0EC3C002000F1080343604FF058
:10595000FF328260C36003610023036070474368C5
:105960004B609A688A609A68516099600861036820
:1059700001330360704730B40D68B5F1FF3F02D0CA
:1059800000F1080202E0026904E01A4653681C684C
:10599000AC42FAD953684B6099608A6051600861E3
:1059A00003680133036030BC704703694268816853
:1059B00091608268416851605A68824205D0002235
:1059C0000261186801381860704782685A60F6E70B
:1059D00010B50446FFF7FEFEA26BE36B9A4204D0BB
:1059E0000024FFF71DFF204610BD0124F9E710B584
:1059F0000446FFF7EFFEA36B23B10024FFF710FF6F
:105A0000204610BD0124F9E770B504461646856BA3
:105A1000026C5AB903681BB100200135A56370BD43
:105A2000406800F0CBFE00236360F6E76EB9806843
:105A300002F040FA226CA3681344A36062689342A8
:105A400019D32368A3600020E7E7C06802F032FAA8
:105A5000226C5242E3681344E36021688B4202D215
:105A600063681A44E260022E01D00020D5E725B118
:105A7000013D0020D1E70020CFE70020CDE7026CF8
:105A800072B110B5C3681344C3604468A34201D324
:105A90000368C3600C46C168204602F00BFA10BDD3
:105AA000704738B50546FFF795FE95F8454064B256
:105AB00003E000F01DFE013C64B2002C08DD6B6ABF
:105AC00033B105F1240000F06FFD0028F3D0F0E7BA
:105AD000FF2385F84530FFF7A3FEFFF77BFE95F81F
