:020000040800F2
:100000000000052021170108011800080318000846
:10001000051800080718000809180008000000006B
:10002000000000000000000000000000D16D00088A
:100030000B18000800000000716E00080D18000881
:10004000711701087117010871170108711701086C
:10005000711701087117010871170108711701085C
:10006000711701087117010871170108711701084C
:10007000711701087117010871170108711701083C
:10008000711701087117010871170108711701082C
:10009000711701087117010871170108711701081C
:1000A000711701087117010871170108711701080C
:1000B00071170108711701087117010871170108FC
:1000C00071170108711701087117010871170108EC
:1000D00071170108711701087117010871170108DC
:1000E00071170108711701087117010871170108CC
:1000F0001518000871170108711701087117010818
:1001000071170108711701087117010871170108AB
:10011000711701087117010871170108711701089B
:10012000711701087117010871170108711701088B
:1001300071170108251800087117010871170108C7
:1001400071170108711701087117010835180008A7
:10015000711701087117010871170108711701085B
:10016000711701087117010871170108711701084B
:1001700071170108711701087117010800000000CC
:10018000711701087117010871170108711701082B
:10019000711701087117010871170108711701081B
:1001A000711701087117010871170108711701080B
:1001B00071170108711701087117010871170108FB
:0801C000711701087117010815
:1001D0000348044B834202D0034B03B118477047D6
:1001E0009800002098000020000000000548064903
:1001F000091A891001EBD171491002D0034B03B1E8
:100200001847704798000020980000200000000068
:1002100010B5064C237843B9FFF7DAFF044B13B14E
:100220000448AFF300800123237010BD9800002024
:1002300000000000A42A010808B5044B1BB10449C2
:100240000448AFF30080BDE80840CFE7000000009D
:100250009C000020A42A0108034613F8012B002A61
:10026000FBD1181A013870470000000000000000A0
:1002700001F0FF01102A2BDB10F0070F08D010F857
:10028000013B013A8B422DD010F0070F42B3F6D15B
:10029000F0B441EA012141EA014122F007047FF074
:1002A00000070023F0E80256083C85EA010586EACB
:1002B000010685FA47F5A3FA87F586FA47F6A5FA07
:1002C00087F68EB9EED1F0BC01F0FF0102F0070213
:1002D00032B110F8013B013A83EA010313B1F8D1BE
:1002E0000020704701387047002D06BF354603389F
:1002F000073815F0010F07D1013015F4807F02BFD8
:10030000013015F4C03F0130F0BC0138704700BF28
:1003100053B94AB9002908BF00281CBF4FF0FF316C
:100320004FF0FF3000F072B9ADF1080C6DE904CE6A
:1003300000F006F8DDF804E0DDE9022304B07047C0
:100340002DE9F047089E04468846002B4BD18A428F
:10035000154667D9B2FA82F24AB1C2F1200701FA12
:1003600002F320FA07F7954047EA030894404FEA62
:10037000154E230CB8FBFEF71FFA85FC0EFB178801
:1003800043EA084307FB0CF1994209D9EB1807F13E
:10039000FF3080F01B81994240F21881023F2B44CC
:1003A0005B1AA4B2B3FBFEF00EFB103344EA034425
:1003B00000FB0CFCA44509D92C1900F1FF3380F097
:1003C0000781A44540F2048102382C4440EA0740EA
:1003D000A4EB0C0400271EB1D4400023C6E900435F
:1003E0003946BDE8F0878B4209D9002E00F0EB803A
:1003F0000027C6E9000138463946BDE8F087B3FA60
:1004000083F7002F47D18B4202D3824200F2FA8059
:10041000841A61EB030301209846002EE0D0C6E960
:100420000048DDE702B9FFDEB2FA82F2002A40F0AE
:100430008F80491B4FEA154E1FFA85F80127B1FB43
:10044000FEFC230C0EFB1C1143EA014308FB0CF1DC
:10045000994207D9EB180CF1FF3002D2994200F211
:10046000CD808446591AA3B2B1FBFEF00EFB1014E6
:1004700043EA044408FB00F8A04507D92C1900F111
:10048000FF3302D2A04500F2B6801846A4EB080460
:1004900040EA0C409FE7C7F1200CBB4022FA0CFE5B
:1004A0004EEA030E01FA07F420FA0CF521FA0CF3D8
:1004B0004FEA1E482543B3FBF8F92C0C08FB19330F
:1004C0001FFA8EFA44EA034309FB0AF49C4202FA3B
:1004D00007F200FA07F10BD91EEB030309F1FF3015
:1004E00080F087809C4240F28480A9F10209734425
:1004F0001B1BADB2B3FBF8F008FB103345EA034415
:1005000000FB0AFAA24508D91EEB040400F1FF33F0
:100510006BD2A24569D90238744440EA0940A0FB75
:100520000289A4EB0A044C45C2464B4654D351D031
:10053000002E69D0B1EB0A0564EB030404FA0CFC4D
:10054000FD40FC404CEA0505C6E90054002747E79A
:10055000C2F1200320FA03F7954001FA02F021FAD4
:1005600003F34FEA154E3843010CB3FBFEF71FFAB5
:1005700085F80EFB173341EA034107FB08F38B4272
:1005800004FA02F407D9691807F1FF3C2FD28B4215
:100590002DD9023F2944CB1A81B2B3FBFEF00EFBEA
:1005A000103341EA034100FB08F38B4207D9691875
:1005B00000F1FF3C17D28B4215D902382944C91AE1
:1005C00040EA07473BE73746304609E70746E7E694
:1005D0001846FBE64145ABD2B8EB020A69EB0E02C6
:1005E00001381346A4E76046E9E7184695E76746F1
:1005F000D1E781467CE702382C4447E7ACF1020C96
:100600002B442FE7384608E73746E9E6704700BF36
:1006100008B54FF40D7011F0D1F80F4B186001229E
:100620000E4905F0DFFC60B9022011F0C7F80C4B51
:1006300018600C4B1B8803800B4800F0AFFB0120B7
:1006400008BD0A4800F0AAFB034B186811F0BEF879
:100650004FF0FF30F4E700BFF43F00207C2C01088E
:10066000F83F00207C2B0108802B0108682B010833
:10067000014B1868704700BFF83F002030B58DB0BF
:1006800004460146684606F0A8F858B9684606F0E0
:10069000EDF8074D2C602146064800F07FFB2868E6
:1006A0000DB030BD2146044800F078FB0020F7E78C
:1006B000F83F0020E42B0108002B010810B592B090
:1006C000164B196806A806F088F8C8B90A2011F078
:1006D00075F8044600230370694606A806F0DEF8A4
:1006E000A8B99DF8093093B10DF10901204611F028
:1006F0001FFA2046FFF7B0FD094B1B882352EBE79A
:10070000064B1968074800F049FB002402E006A8E0
:1007100006F0ACF8204612B010BD00BFF83F002034
:100720000C3801084C2B010838B50246124B1968E9
:100730000024204611F0DCF94FF40C7011F03EF863
:1007400005460122214605F093FC20B9002011F056
:100750003DF8284638BD2146084800F01FFB2146D9
:10076000074800F01BFB204611F030F8284611F036
:100770002DF82546EDE700BFF83F0020E42B0108E7
:10078000902B010800B583B00DF1060305F092FD32
:1007900020B9BDF8060003B05DF804FB024800F084
:1007A000FDFA4FF6FF70F6E7A82B010810B50446D6
:1007B00006F007F940B92146084800F0EFFA204654
:1007C00011F004F8012010BD2146054800F0E6FABA
:1007D000204610F0FBFF4FF0FF30F4E7382B010804
:1007E000202B0108F0B58DB0414B1A6B42F004028A
:1007F0001A631A6B02F004020092009A1A6B42F01C
:1008000020021A631A6B02F020020192019A1A6BFD
:1008100042F080021A631A6B02F080020292029A7E
:100820001A6B42F001021A631A6B02F00102039282
:10083000039A1A6B42F002021A631A6B02F0020268
:100840000492049A1A6B42F008021A631A6B02F0BF
:1008500008020592059A1A6B42F040021A631B6B5C
:1008600003F040030693069B224D002244F28101CF
:10087000284604F0C7FA204F00224021384604F0F1
:10088000C1FA4FF4005307931C4B089300240994BA
:1008900007A91B4804F0C6F944F281030793012617
:1008A000089609940A9407A9284604F0BBF9402346
:1008B0000793089609940A9407A9384604F0B2F9F8
:1008C000802307930894099407A9384604F0AAF9ED
:1008D0004FF48073079312230893099603230A9316
:1008E00004230B9307A9284604F09CF90DB0F0BD32
:1008F00000380240000402400018024000001110BD
:1009000000080240064B1B68DA6912F0280F04D079
:1009100008221A62586AC0B270470020704700BFB0
:100920000040002030B5ADF50F7D0C461546002384
:1009300001930A22014602A805F09AFB02A805F0DD
:10094000D8FF01AB2A46214602A805F0B6FD02A851
:1009500005F026FF01980DF50F7D30BD30B585B04F
:1009600000F0E4FD00F02CFB00F03AFB4D4800F0F5
:1009700015FA012240214C4804F044FA4B4B1B78F5
:10098000022BFBD14A4C21464A4800F007FA4FF4AB
:100990000D7010F013FF05460122214605F022FBE1
:1009A00038B1454800F0FAF9284610F00FFF05B0BD
:1009B00030BDFFF72DFEFFF75BFE3E4C01462046A3
:1009C00000F0ECF9FFF77AFE0146204600F0E6F968
:1009D0003A48FFF7A9FE0546102010F0EFFE044646
:1009E000102201462846FFF7CDFE22460146344834
:1009F00000F0D4F9204610F0E9FE324811F02CF84E
:100A0000314B93E8070004AB03E907000CE06128D1
:100A100007D062281FD038B10A462C4800F0BEF932
:100A200002E02B4800F0BAF9FFF76CFF014664289A
:100A30001ED0ECD966282FD012D373281CD077286B
:100A4000EAD1072201A91D48FFF76CFF60B12148D8
:100A500000F0A4F9E8E716491F4800F09FF9E3E722
:100A60001E48FFF70BFEDFE71D4800F097F9DBE7B4
:100A70001248FFF79BFED7E7FFF7FAFD014619483A
:100A800000F08CF9184800F089F9FFF717FE0146CD
:100A9000084800F083F9C7E744F28101134804F0E5
:100AA000B7F9C1E7C82B010800180240C0000020B8
:100AB00070400020E42B0108682B0108D42B0108AA
:100AC000DC2B0108E82B0108A82C0108802C010868
:100AD000F42B0108282C01080C2C0108202C0108FB
:100AE0003C2C01084C2C0108642C01080004024035
:100AF00008B50268034B9A4200D008BD04F098F98B
:100B0000FBE700BF001C0040FEE7000008B50C48F2
:100B10000C4B03604FF4E133436000238360C360F8
:100B200003610C2242618361C3610362436203F08B
:100B300024FA00B908BD4FF4AA710348FFF7E4FF97
:100B40000040002000480040BC2B010808B51548B3
:100B5000154B0360154B4360002383600122C26084
:100B6000036143618361C361036202F067FD50B9B1
:100B700000210C4802F0C0FD50B90021094802F0E4
:100B8000E9FD50B908BD40F231110948FFF7BCFF3B
:100B90004FF49C710648FFF7B7FF40F23F1104483D
:100BA000FFF7B2FF74400020005800405B3D30006A
:100BB000BC2B010800B5B5B0324B1A6C42F0805224
:100BC0001A641B6C03F080530093009B2E4A136839
:100BD00023F4404343F480431360136803F4404319
:100BE0000193019B012328934FF4A023299302230F
:100BF0002E934FF480022F92042230924822319299
:100C000032930323339328A803F0EAF958BB0F2348
:100C1000239302212491002325934FF4805226929E
:100C2000279323A803F032FC08BB184B0293002340
:100C300015931C93219302A803F01EFDE0B903F065
:100C4000D7FC134BA3FB0030800902F0D1FC042039
:100C500002F0E4FC00220F214FF0FF3002F08AFC8A
:100C600035B05DF804FBFB210A48FFF74DFF40F269
:100C700009110848FFF748FF40F213110548FFF734
:100C800043FF00BF00380240007000400081200098
:100C9000D34D6210BC2B010800B587B004F0BCF83E
:100CA0000D4800F0F3F8FFF785FFFFF79BFDFFF716
:100CB0002DFFFFF74BFF00F039FC01AC074D0FCDC6
:100CC0000FC42B682360002101A807F026FB044B0A
:100CD000186007F013FBFEE700400020BC2A010863
:100CE000FC3F002008B500F0D7F808BD10B5044659
:100CF00002E00134FFF7F6FF20780028F9D110BD9B
:100D0000F0B587B0B1F1000E07DB0021002A0DDB42
:100D10002027142A40DC002617E0CEF1000E002820
:100D200001DB0021F2E740422D21EFE7524230275C
:100D3000EFE73033741CE4B20DF1180CB4440CF836
:100D4000143CB0FBF5F060B126465FFA8EF5B0FBBF
:100D5000F5F305FB1303DBB2092BEAD90733DBB24A
:100D6000E7E761B1023606AB1C4404F8141CF4B288
:100D700005E00134E4B206A90B4403F8147C2346D1
:100D80009442F6DB013CE4B206AB234413F8140CA6
:100D9000FFF7A8FF002CF5D107B0F0BD0FB430B5B8
:100DA00083B006AB53F8044B019302E0FFF79AFFC0
:100DB0002C46651C2078002862D02528F6D1023404
:100DC0002B78302B02D0002500220BE0AC1C6B7876
:100DD0000125F9E702EB82004100303B0B441A4445
:100DE00023780134A3F130010929F3D905B1524226
:100DF0006C2B1ED00020002B42D0732B1DD0632BF8
:100E000022D0752B27D00021642B26D0782B18BF39
:100E1000582B00D11021622B22D0002930D008BBE2
:100E2000002926DD019B181D01901868FFF768FF57
:100E3000BFE7237801340120DDE7019B1A1D0192F1
:100E40001868FFF753FFB4E7019B1A1D0192187849
:100E5000FFF748FFADE70A21D6E76FF00901D5E7B4
:100E60000221DCE7019B181D01901868FFF748FF7D
:100E70009FE7019B181D01901868FFF741FF98E755
:100E800003B0BDE8304004B070470000014B18606B
:100E9000704700BFB4000020044B1B681B68DA6970
:100EA00012F0800FF8D09862704700BFB4000020A5
:100EB0000020704708B5014603480FF0EAFF08B963
:100EC000012008BD0020FCE75476002010B590B04A
:100ED000044600930B4601460B4810F00FF810B97A
:100EE000002010B010BD03AA214607480FF0E4FF10
:100EF0009DF81930282B05D03A2B03D0042B01D0B4
:100F00000120EEE70320ECE75476002010B58EB008
:100F10001446032924D8DFE801F002050E1800204A
:100F20000EB010BD01AA014611480FF0C5FFC8B9A7
:100F3000029B2360F4E701AA01460D480FF0BCFFB5
:100F400090B9BDF80C302360EAE701AA01460848D1
:100F50000FF0B2FF50B9BDF80C305B0A2360DFE739
:100F60000420DDE70120DBE70120D9E70120D7E7F6
:100F70005476002010B590B0044600930B4601460D
:100F80000E4810F005F810B9002010B010BD03AAEB
:100F900021460A480FF090FF9DF81930272B0AD000
:100FA00005D9282B01D03A2B03D10320EDE7042BE0
:100FB000FBD00120E9E70220E7E700BF54760020DC
:100FC00008B50349034805F087FD034B187008BDB9
:100FD00070400020C02C01082845002000207047E8
:100FE00030B585B00021084607F098FC1149002073
:100FF0000860114A1060114B1860114C114D029598
:10100000114D01950090204608F032F8204608F076
:101010006FF894F82F3013F0040F07D1084808F048
:101020007FF807480DF032F805B030BD204608F0D3
:1010300065F8F6E76045002064450020684500201B
:101040002C45002085880008191400082DE9F04778
:10105000334800F0C1FE00285ED1314B998FD3F8A0
:10106000409029B94FF000082D4B1B6B00213AE04E
:101070000322042008F0C0F980460028F4D0284B51
:101080001F6B8246002421E0DAF8040040F2F4529B
:10109000121B09EB0401304410F0AFFBFF68D7F8D6
:1010A0000890A5F2F452361B06F2F4560024A51857
:1010B00040F2F4539D42E7D8DAF8040009EB04014A
:1010C000304410F09AFBDAF800A02C46BAF1000F79
:1010D000CAD0BAF80A200026E9E71A6842F00042AE
:1010E0001A60DB6801310E4A926B8A42F5D80C4BCC
:1010F00000229A631B6841F214029A5812F0800F82
:1011000007D041F214028021995041F208020021D7
:1011100099504046BDE8F0874FF00008F9E700BF5E
:101120003C5E002038B505464FF0FF310B4B186888
:1011300007F08EF90028F7D101E0002CF4D0284602
:10114000FFF784FF04460028F7D02B69294698470B
:101150000028F2D0204608F0E5F8EEE7B8000020BD
:101160002DE9F84F8B462C4BDE6AD6F808A00024F8
:101170002746BBF1000F32D03368002B35DBBBF8BC
:101180000A90002504EB090840F2F453984519D958
:10119000DBF8041040F2F452121B29440AEB04005D
:1011A00010F02BFBF6683368002B21DBD6F808A083
:1011B000A8F2F4592D1B05F2F4553F1B07F2F45722
:1011C0000024DFE7DBF804104A4629440AEB040058
:1011D00010F013FB4F44DBF800B04446C9E7394632
:1011E0000D4800F069FD002004E06FF0070001E009
:1011F0006FF00700084B1B6841F214029A5812F076
:10120000200F07D041F214022021995041F204022C
:1012100000219950BDE8F88F3C5E0020F0B58BB0FE
:101220000446002309933D483D4A02600122426082
:1012300003828DF81C3070258DF81D5007218DF824
:101240001E108DF81F308DF820508DF8211007A941
:1012500041618261C3614FF40003036200F0C6FE86
:1012600028B994F82F3043F0040384F82F302B4D25
:1012700004232C4A2C49284600F0AFFC04232B4AB7
:101280002B49284600F0E2FC062384F828306B69DD
:101290001A7884F829205A7884F82A209A7884F8D1
:1012A0002B20DA7884F82C201A7984F82D205B79A9
:1012B00084F82E3040F2DC53E38494F82F3043F06E
:1012C0000A0384F82F300AA8002340F8103D0121BA
:1012D00007F0AAF8174B186001AE174F0FCF0FC6D3
:1012E0003B683360214601A807F017F8284600F054
:1012F000A7FF09AA0B21284600F002FE099A42F036
:101300000B0209920B21284600F036FE09AA0B2198
:10131000284600F0F5FD0BB0F0BD00BF3C5E00209C
:1013200000800240845E00206C450020EC450020D7
:10133000BC5D0020B8000020D02A010802682D4BB7
:101340009A4200D07047F0B589B0A3F590431A6B6C
:1013500042F000721A631A6B02F000720092009A57
:101360001A6B42F080621A631A6B02F0806201927B
:10137000019A1A6B42F000621A631B6B03F0006360
:101380000293029B322303930227049700240594BF
:10139000032606960B25079503A9174803F042FC80
:1013A00086230393049705940696079503A913488B
:1013B00003F038FC4FF4005303930497059406960A
:1013C000079503A90E4803F02DFC4FF42053039317
:1013D000049705940696079503A90A4803F022FC92
:1013E000224605213D2002F0C5F83D2002F0F4F828
:1013F00009B0F0BD00800240000802400000024039
:10140000000402400018024008B5024B186807F0BB
:1014100059F808BDB800002010B5044670B1732318
:1014200084F83030742384F83130084B6361084B02
:10143000A3612046FFF7F2FE002010BD054B40F2ED
:1014400047220549054810F093FAE8E71DEB00082C
:1014500061110008D42C0108E82C0108F82C0108BF
:1014600008B503F0F1FC08BD03460D4A126862B1ED
:101470000B4A10680B4A12681268A2F50052034426
:10148000934206D8064A13607047054A0649116020
:10149000EEE7064B0C221A604FF0FF30704700BF9A
:1014A000BC00002008ED00E0F0B40020E4B400200F
:1014B00070B51646002405E04D1C0878AFF3008097
:1014C00001342946B442F7DB304670BD4FF0FF309F
:1014D00070474FF400534B60002070470120704765
:1014E0000020704770B50D461646002404E0AFF3A7
:1014F0000080287001340135B442F8DB304670BDFD
:1015000004290CD0052902D0022904D07047064BCB
:1015100003221A707047044B02221A707047024B64
:1015200001221A70F2E700BFC000002010B5074C7E
:101530000122074920460EF025FC064920460EF000
:1015400055FC20460EF096FC10BD00BF54760020DE
:1015500001150008140000200368B3F1A04F00D06B
:10156000704730B589B04FF4E853039302230493D6
:1015700000240594032306930A230793154D03A91A
:10158000284603F04FFB4FF4007303930494059433
:1015900003A9284603F046FB0F4B5A6B42F080022A
:1015A0005A635A6B02F080020192019A5A6C42F41B
:1015B00080425A645B6C03F480430293029B224690
:1015C0000521432001F0D6FF432002F005F809B0C1
:1015D00030BD00BF000002400038024008B5D0F81E
:1015E000BC020EF054FC08BD08B5D0F8BC020EF0E9
:1015F00098FD08BD08B5D0F8BC020EF0ADFD08BDE1
:1016000008B5D0F8BC020EF0C9FD08BD08B5D0F889
:10161000BC020EF045FC08BD08B5D0F8BC020EF0C7
:1016200043FC08BD90F8C033012B01D00020704767
:1016300010B504461148C0F8BC42C4F8C4034FF0CA
:10164000A0430360082383600323C3600023036176
:10165000022383610123C36100F0B4FE40B907484F
:1016600001F0C2FB014620460EF00EFC002010BD2A
:10167000F7210348FFF748FAF1E700BF287A002076
:10168000282D010808B5D0F8C40301F073FB18B188
:10169000022803D0022008BD0020FCE70120FAE761
:1016A00008B5D0F8C40301F07BFB18B1022803D0C1
:1016B000022008BD0020FCE70120FAE708B5D0F8B9
:1016C000C40301F096FB18B1022803D0012008BD25
:1016D0000020FCE70220FAE708B5D0F8C40301F0C7
:1016E00071FB18B1022803D0022008BD0020FCE7DE
:1016F0000120FAE708B5D0F8C40301F06FFB08BD7C
:1017000010B584B0D0F8C403BDF8204002949DF811
:101710001C4001949DF81840009400F0F1FD20B1A8
:10172000022804D0022004B010BD0020FBE70120F5
:10173000F9E708B5D0F8C40300F032FE18B102286A
:1017400003D0022008BD0020FCE70120FAE710B515
:1017500084B0D0F8C4039DF824400394BDF8204021
:101760000294079C01949DF81840009400F06CFED0
:1017700020B1022804D0022004B010BD0020FBE7F5
:101780000120F9E708B5D0F8C40301F020FB08BD3B
:1017900008B5C82003F05EFB002008BD10B4D0F8E7
:1017A000C43301EB8104E0000446184490F83B0088
:1017B00048B901EB8101C800034483F8512000209F
:1017C0005DF8044B7047234483F85020F7E7D0F8C6
:1017D000C43301EB8100C20010461A4492F83B204A
:1017E00032B901EB8101CA00134493F851007047EC
:1017F000034493F85000704708B503F02BFB08BD75
:101800007047FEE7FEE7FEE7FEE7704708B506F023
:101810001FFF08BD08B5024801F0D9FF08BD00BF91
:10182000E87C002008B5024800F024FB08BD00BF9A
:101830003C5E002008B5024801F0F8F908BD00BF81
:10184000287A002000B583B0214B1A6C42F08052F8
:101850001A641A6C02F080520092009A5A6C42F498
:1018600080425A645B6C03F480430193019B032024
:1018700001F06EFE002211466FF00B0001F07AFEBF
:10188000002211466FF00A0001F074FE002211469A
:101890006FF0090001F06EFE002211466FF00400A7
:1018A00001F068FE002211466FF0030001F062FEB5
:1018B00000220F216FF0010001F05CFE00220F21D9
:1018C0004FF0FF3001F056FE03B05DF804FB00BF9F
:1018D000003802400268104B9A4200D0704700B5B1
:1018E00087B00323019312220292012203920493F0
:1018F000042305930DEB0301084803F093F9084B0B
:101900001A6C42F480021A641B6C03F48003009387
:10191000009B07B05DF804FB005800400014024033
:10192000003802400268114B9A4200D0704700B55F
:1019300087B003F5F8331A6C42F480221A641B6CEA
:1019400003F480230093009B4FF440730193022320
:10195000029300230393032304930723059301A910
:10196000034803F05FF907B05DF804FB004800404E
:10197000000C024000B589B0002201462C2001F085
:10198000F9FD2C2001F028FE154B1A6C42F0800264
:101990001A641B6C03F080030193019B02A903A846
:1019A00002F04CFE02F02AFE43000E48A0FB032387
:1019B0009B0C013B0C480D4A026040F2E732C260CA
:1019C000436000230361836002F054F818B10120E2
:1019D00009B05DF804FB044801F0E9FEF8E700BF38
:1019E0000038024083DE1B43E87C0020001C0040DE
:1019F0005079137943EA002307480B50D078937845
:101A00001B0443EA0063507843EA0023127813432F
:101A1000024A8B50704700BF408002404480024021
:101A2000016841F218028B5843F400538B50704701
:101A3000016841F218028B5843F002038B50704743
:101A400070B59EB0044629B14FF40063C3604FF4F3
:101A500080438360E369002B68D14FF48063079370
:101A600021680B68374A1A40A368E0680343079867
:101A7000034343F4007313430B6023681D68012084
:101A800003F0E8F923681D60236840225A60236848
:101A90005D68012003F0DEF923685D60236800259E
:101AA0009D602368DD602268936923F0BE031B04F8
:101AB0001B0C43F08003936123689E69012003F0AF
:101AC000C9F923689E612368DD612368DD6901200F
:101AD00003F0C0F92368DD61216841F218054B5914
:101AE000194A1A40194B13434B5123685E59012080
:101AF00003F0B0F923685E51236803F58053144A5C
:101B00001A60236803F580531D68012003F0A2F9D1
:101B1000236803F580531D60A369012B09D0626916
:101B200000212046FFF764FF1EB070BD002307931D
:101B300096E7216841F21C028858064B03438B50FC
:101B4000EDE700BF0F8120FF233FDEF804002002F5
:101B50008020C1024000010010B582B0044600237D
:101B600001930268136843F00803136003681B685D
:101B70000193012003F06EF92368019A1A6002B004
:101B800010BD10B582B004460023019302681368AB
:101B900043F00403136003681B680193012003F002
:101BA00059F92368019A1A6002B010BD30B583B0AC
:101BB000054600230193026841F21804135943F4C7
:101BC0008013135103681B590193012003F042F95C
:101BD0002B68019A1A5103B030BDF0B490F845401B
:101BE000012C31D0012480F84540022480F8444083
:101BF000C162002401E0F96001349C4217D2650102
:101C00004F194FF480164E5140F2F45606FB04264D
:101C1000BE60C6691EB94E5946F440064E515D1E5F
:101C2000A542E8D9651C01EB4515FD60E4E70268B3
:101C300041F21003D150012380F84430002380F892
:101C400045301846F0BC70470220FBE7F0B490F82E
:101C50004540012C2ED0012480F84540022480F814
:101C600044408162002401E0E96001349C4214D2C6
:101C700066018D194FF000478F5144F2F4566E60A3
:101C800040F2F45606FB0426AE605E1EA642EBD977
:101C9000661C01EB4616EE60E7E7026841F20C03B2
:101CA000D150012380F84430002380F84530184695
:101CB000F0BC70470220FBE790F84530012B00F0A4
:101CC0008580012380F84530022380F84430B1B18B
:101CD000C36A1A68002A1ADB30B440F2F452914207
:101CE0001DD93B4AA2FB0142920A40F2F45404FB84
:101CF000121404B10132012A11D0002347E001235C
:101D000080F84430002280F845201846704712239E
:101D100080F84430002380F84530012070471A686D
:101D200042F040521A60C36AC1F30C015960C26AA2
:101D3000136843F000431360C36ADB68C36203683F
:101D400041F214029A5812F0040F08D041F2140222
:101D500004219950026841F204030021D15001236B
:101D600080F84430002380F84530184630BC704776
:101D7000C56A2C6844F080542C6011E0C56A2C6858
:101D800044F000442C60C46AE468C46201339A429F
:101D9000D5D9C56A2C6824F040542C60002BE7D0BC
:101DA000C46A40F2F4556560541E9C42E6D1C56A8F
:101DB0002C6844F000542C60064C04FB021404F21E
:101DC000F454C56AC4F30C046C60D7E70220704772
:101DD0000BB002AC0CFAFFFF90F84530012B45D058
:101DE000012380F84530022380F844300021836AC3
:101DF0001A68002A32DB032930D801311A6802F44C
:101E00004072B2F5007F09D01A6812F4407F0BD1FE
:101E1000826B01328263DB688362E8E7036301223D
:101E20008263DB688362E2E74363826B0132826331
:101E3000012A11D01A68C2F30D42043AC263026B40
:101E400092680264DB688362012380F844300023D7
:101E500080F84530184670470363EBE7012380F8AC
:101E60004430002280F84520184670470220704711
:101E70007047704710B50446036841F214029A583F
:101E800012F0400F11D141F214029B5813F0010FD0
:101E900019D1226841F214034FF48031D1502268E5
:101EA000D35813F4004F1BD110BDFFF7ADFA2268D1
:101EB00041F214034021D150012384F8443000231F
:101EC00084F84530E5E7FFF7D3FF2168012341F2AD
:101ED00014028B5084F84430002384F84530D8E74E
:101EE0002046FFF7C6FF226841F214034FF4004179
:101EF000D150012384F84430002384F84530D3E7DF
:101F0000F8B590F84430DBB2822B33D01646054644
:101F1000822380F844300268136903F01C03048AAA
:101F2000E402A4B223438C0104F4F8641C4344F09B
:101F30000104146102F088FF074614F0010F10D06D
:101F400002F082FFC01BB0F5803F02D22B681C69F3
:101F5000F3E7012385F84430002385F8453003205A
:101F600007E02B685B699BB23360012385F844303E
:101F70000020F8BD0220FCE790F84430DBB2422B91
:101F800032D070B50546422380F8443000680369BA
:101F900003F01C032C8AE402A4B223438C0104F452
:101FA000F8641C4344F0030492B242612B681C6144
:101FB00002F04AFF064614F0010F10D002F044FF71
:101FC000801BB0F5803F02D22B681C69F3E7012328
:101FD00085F84430002385F84530032003E00123D1
:101FE00085F84430002070BD0220704770B582B083
:101FF00000230193002800F00C81044690F844303F
:10200000002B32D0844B5A6C42F480425A645B6C91
:1020100003F480430093009B804B5A6822F4000233
:102020005A605A68216A0A435A60236803F580534C
:102030001A6842F001021A6002F006FF05462368A2
:1020400003F58052126812F0010F13D002F0FCFE6B
:10205000401BB0F5FA7FF2D9032584F844500023E1
:1020600084F84530284602B070BD80F84530FFF74F
:1020700065F9C7E71D6925F01C0502F0B9FA684B40
:102080000344684A934255D845F0080523681D610A
:102090004FF4004200212046FFF76EFF054600285E
:1020A00060D1FF2002F0D6FE6368002B00F0918023
:1020B00002F0CAFE064601AA01212046FFF720FFD2
:1020C00002F0C2FE801B41F28833984252D8019B35
:1020D00013F0040FEFD04FF4805200212046FFF799
:1020E0004BFF002852D102F0AFFE064601AA0121A3
:1020F0002046FFF705FF02F0A7FE801B41F2883360
:1021000098424BD8019B13F0200FEFD001AA102169
:102110002046FFF7F5FE00284CD1019B13F0040F79
:1021200050D04FF40062E26013F0020F4DD0002354
:10213000A3605EE03C4B03443C4A934202D845F026
:102140000C05A3E73A4B03443A4A93429ED93A4BD3
:1021500003443A4A934202D845F0040596E745F015
:10216000100593E701212046FFF76AFC012584F85A
:10217000445077E701212046FFF762FC012384F8F1
:102180004430002384F8453003256BE701212046C5
:10219000FFF756FC012584F8445063E701212046EF
:1021A000FFF74EFC012384F84430002384F84530C7
:1021B000032557E701212046FFF742FC012584F85B
:1021C00044504FE70022E260AEE74FF48043A36043
:1021D0000FE0E268C2F3CF02A368C3F34F031A43D0
:1021E00000212046FFF7C8FE58B940F6FF7002F004
:1021F00031FE00212046FFF723FC012384F8443000
:1022000030E701212046FFF71BFC012584F84450EC
:1022100028E7012526E700BF0038024000380140CA
:1022200000D3CEFEBFE1E40040F1E9FD3F787D013F
:1022300000796CFCFF596202001F0AFA7FF0FA0273
:1022400038B590F84530012B1AD00446012580F8A6
:102250004550022380F84430FFF77EFC2046FFF70C
:1022600090FC2046FFF7A2FC2046FFF7D9FB204652
:10227000FFF7DEFB84F84450002084F8450038BDA9
:102280000220FCE7F8B50668346A04F00F07C4F3CF
:102290004343C4F30A14022B2ED16CB307EB87021D
:1022A000D3000344596C39B305462246304600F04A
:1022B0005FFEBA003A44D3002B445A6C22445A645D
:1022C000DA6C2244DA6406EB4713D3F810150B4A94
:1022D0000A408AB1D3F8002522F0804242F0004241
:1022E000C3F80025BB00D919CA002A4492F850301F
:1022F00083F0010382F85030F8BD00BF0000F81FE2
:10230000F0B585B09DF828509DF82C60BDF8307070
:1023100090F8B842012C41D0012480F8B8424FEA2D
:10232000810C8C444FEACC0404444FF0000C84F838
:102330003DC084F83830A4F8407084F8391084F82F
:102340003F6002F07F0C84F83AC012F0800F1BD17E
:1023500001EB810C4FEACC0404444FF0000C84F8EC
:102360003BC0044601EB810C4FEACC00204480F8CE
:102370003C50029701960095206800F0F5FE00237E
:1023800084F8B83205B0F0BD01EB810C4FEACC0403
:1023900004444FF0010C84F83BC0E2E70220F1E76F
:1023A00090F8B832012B0BD010B50446012380F809
:1023B000B832006800F060FF002084F8B80210BD59
:1023C0000220704700283DD0F0B58BB0064690F84B
:1023D000B93293B3032386F8B932306800F070FD48
:1023E000344654F810CB6D460FCC0FC50FCC0FC53B
:1023F00094E8030085E80300371D97E80E00604667
:1024000000F01AFD0121306800F060FD344654F8F8
:1024100010CB6D460FCC0FC50FCC0FC594E8030051
:1024200085E8030097E80E00604600F01FFE0123D8
:1024300086F8B93200200BB0F0BD80F8B832FFF753
:102440008BF8C7E701207047F8B59DF81870BDF804
:1024500020608D000D44EC00044484F83B2084F897
:102460003F306FB901EB8105EC000444032584F88B
:102470004250032B00F29580DFE803F00A8C2E5DBA
:1024800001EB8105EC000444022584F84250F0E79A
:10249000012F08BF002A40F0848036B901EB810289
:1024A000D3000344012283F8512001EB8102D300C1
:1024B000034493F851303BB901EB8102D30003444C
:1024C000002283F842206CE001EB8102D300034438
:1024D000022283F8422064E0B2B901EB8102D3000A
:1024E000034493F851303BB901EB8102D30003441C
:1024F000002283F8422054E001EB8102D300034420
:10250000022283F842204CE001EB8102D300034415
:1025100093F850303BB901EB8102D3000344002211
:1025200083F842203DE001EB8102D3000344022204
:1025300083F8422035E0B2B901EB8102D3000344B5
:1025400093F851303BB901EB8102D30003440022E0
:1025500083F8422025E001EB8102D30003440222EC
:1025600083F842201DE001EB8102D300034493F87D
:1025700050303BB901EB8102D3000344002283F8C1
:1025800042200EE001EB8102D3000344022283F8D3
:10259000422006E001EB8102D3000344002283F8CD
:1025A00042208A005418E3000344079C5C649E6444
:1025B000002483F85C40DC6483F8391083F85D40C4
:1025C0001144CB0003F13801027C0144006800F0A3
:1025D000D3FEF8BD30B583B005460468D4F8403466
:1025E0000193D4F840340093009B23F02E03009312
:1025F000019B13F0020F07D0019B13F0010F28D1AC
:10260000009B43F002030093019B13F0080F13D0CB
:10261000009B43F008030093019B13F0040F34D098
:10262000AB69022B1CD0EB68032B29D02846FEF7A0
:10263000EDFF2846FEF7D8FF019B13F0200F03D0D3
:10264000009B43F020030093009BC4F8403403B088
:1026500030BDA36923F00053A361FEF7C5FFCFE7A8
:10266000019B03F4C023B3F5802F04D00121286817
:1026700000F09AFCDAE70221286800F095FCD5E723
:102680004EF66022C4F80424D0E72846FEF7C4FFC3
:10269000D4F8403423F02E03C4F840342A689369F8
:1026A00043F000539361C7E7F8B506460D46076847
:1026B00007EB411707F5A064A36813F0040F3CD0A3
:1026C0000423A360E36843F00203E360A36813F408
:1026D000007F68D1A36813F0010F00F08D8033698B
:1026E0004BB1AA002A44D30033449A6C2169C1F348
:1026F0001201521ADA64AA002A44D3003344012298
:1027000083F85D2000219965A26093F83F20022A9A
:1027100014BF002301238A4208BF0123002B4ED19E
:10272000032A57D0AB005919CA00324492F85030EE
:1027300083F0010382F85030F8BDA36813F0200F36
:1027400002D02023A360C1E7A36813F0080F17D1BC
:10275000A36813F4806FB9D0E36843F00203E36029
:10276000006800F089FD1023A36005EB8502D3000B
:102770003344082283F85D204FF48063A360A5E70B
:10278000E36843F00203E36001EB8102D3000344FA
:10279000052283F85D201023A3600823A36000684E
:1027A00000F06AFD92E7E36843F00203E360294624
:1027B000306800F061FD4FF40073A360BCE7E3688C
:1027C00043F00203E3602946306800F055FD102312
:1027D000A360A7E7D7F8003543F00053C7F80035EA
:1027E00005EB8502D3003344012283F85C2029469F
:1027F0003046FEF705FF95E7A36813F0020F62D09D
:10280000E36823F00203E36005EB8502D300334461
:1028100093F85D30012B20D0052B32D0082B18BF48
:10282000062B3ED1AA002A44D30033449A6D0132CC
:102830009A65032A2DD9AA002A44D30033440022E2
:102840009A65042283F85C20D7F8003523F0804392
:1028500043F00043C7F8003506E005EB8502D300DE
:102860003344012283F85C200223A36005EB850238
:10287000D300334493F85C2029463046FEF7C0FE6F
:102880005AE705EB8502D3003344052283F85C2028
:10289000EAE705EB8502D3003344022283F85C208B
:1028A000D2E7032BE0D105EB8502D30033440222AB
:1028B00083F85C20D7F8003523F0804343F00043D1
:1028C000C7F80035D0E7A36813F0800F21D1A368C3
:1028D00013F0100F3FF430AF05EB8502D3001A461A
:1028E000334493F83F30032B2BD0022B14BF00222C
:1028F0000122002B14BF134601233BB105EB8502D7
:10290000D300334400229A6533694BB31023A3608C
:1029100012E7E36843F00203E360AB005919CA0011
:102920003244916D013191652B44DA003244062323
:1029300082F85D302946306800F09EFC8023A36059
:10294000FAE605EB8502D300334400229A65E3687A
:1029500043F00203E3602946306800F08DFCD5E7C0
:1029600005EB8502D3003344032283F85D20E3683E
:1029700043F00203E3602946306800F07DFCC5E7C0
:10298000F8B5036803EB411303F5A064A26812F0E5
:10299000040F24D10E460546A26812F0200F25D060
:1029A0002023A36001EB8102D3001A46034493F86D
:1029B0003D30012B19D18B000244002182F83D10DB
:1029C0003344DA000244022382F85C30E36843F0C7
:1029D0000203E3603146006800F04EFC05E004238A
:1029E000A360E36843F00203E360F8BDA26812F05D
:1029F000400F34D1A26812F4007F4AD1A26812F0CD
:102A0000010F51D1A26812F0080F62D1A26812F032
:102A1000100F6FD08A000A44D300034400229A6545
:102A2000032283F85D2093F83D306BB901EB8102FE
:102A3000D300034493F83C3033B901EB8102D30057
:102A40000344012283F83D20E36843F00203E3607E
:102A50003146286800F010FC1023A360C5E78B0006
:102A60005918CA000244042182F85D10012182F83D
:102A70003D103344DA00024400239365E36843F0D9
:102A80000203E3603146006800F0F6FB4023A360D8
:102A9000ABE7E36843F00203E360006800F0ECFB9F
:102AA0004FF40073A360A0E78F007A18D3000344AB
:102AB00000229A65E36843F00203E360006800F0D7
:102AC000DBFB0123A360B919C800284480F85D30FE
:102AD0008BE70823A360E36843F00203E360006828
:102AE00000F0CAFB06EB8601C8002844052380F8E5
:102AF0005D307AE7A26812F0800F36D1A26812F436
:102B0000806F43D1A26812F0020F3FF46EAFE2680B
:102B100022F00202E26001EB8101CA001146024488
:102B200092F85D20012A45D0032A62D0042A68D099
:102B3000052A6ED0082A18BF062A44D1282101FB95
:102B400006018A6D01328A65032A68D90A46002186
:102B50009165042182F85C10D3F8002522F08042B0
:102B600042F00042C3F800252DE0E36843F0020381
:102B7000E360006800F080FB06EB8601CB002B448D
:102B8000062283F85D208023A3602EE7E36843F0EC
:102B90000203E360006800F06FFB1023A3604FF4B2
:102BA0008063A36006EB8601CB002B44082283F8E8
:102BB0005D201AE70B460344012283F85C2093F85A
:102BC0003F30022B0CD00223A36006EB8602D30019
:102BD0002B4493F85C2031462846FEF711FD04E7AC
:102BE0000B46034493F8512082F0010283F85120F0
:102BF000E9E706EB8602D3000344022283F85C2057
:102C0000E1E706EB8602D3000344022283F85C204E
:102C1000D9E7282303FB060383F85C20D3E72822A7
:102C200002FB0602022182F85C1095E7F8B5044623
:102C30000568284600F0B4F9012800D0F8BD2068E6
:102C400000F0AAF90028F9D0206800F0A5F910F4E6
:102C5000001F03D023684FF400125A61206800F06F
:102C60009BF910F4801F03D023684FF480125A613F
:102C7000206800F091F910F0806F03D023684FF0C6
:102C800080625A61206800F087F910F0020F02D0CC
:102C9000236802225A61206800F07EF910F0005F7C
:102CA00025D1206800F078F910F0807F31D12068BC
:102CB00000F072F910F0080F2FD1206800F06CF9C5
:102CC00010F0007F30D1206800F066F910F0100F8E
:102CD000B4D02268936923F0100393612046FFF774
:102CE000D1FA2268936943F010039361A6E7D5F8FF
:102CF000403423F02E03C5F840342046FEF77AFC1A
:102D00000121206800F050F923684FF000525A6109
:102D1000C7E72046FFF75EFCC9E72046FEF75EFCEA
:102D2000236808225A61C8E7206800F0A0FA074625
:102D3000002604E0F1B22046FFF722FE0136A36828
:102D4000B34212D906F00F0327FA03F313F0010F71
:102D5000F4D005EB4613D3F8003513F4004FE9D057
:102D6000F1B22046FFF7A0FCE8E723684FF00072BD
:102D70005A61A8E738B590F8B832012B0ED0044656
:102D8000012580F8B852006800F094F829462068C0
:102D900000F049F9002084F8B80238BD0220FCE7B1
:102DA00090F8B832012B0BD010B50446012380F8FF
:102DB000B832006800F08CFB002084F8B80210BD27
:102DC0000220704708B5006800F00EF908BD01EB5D
:102DD0008101CB00184490F85C00704701EB810141
:102DE000CB001844C06C704708B5006800F0B7F914
:102DF00008BD08B5006800F0A7F908BD002301333D
:102E00000C4A934211D80269002AF8DA036943F0A8
:102E10000103036100230133064A934207D8026984
:102E200012F0010FF7D100207047032070470320F4
:102E3000704700BF400D030084B010B5044603A8DE
:102E400080E80E00089B012B1ED1A36B23F4803376
:102E5000A363E268164B1340E360E36823F4401376
:102E6000E3600F9B012B0AD02046FFF7C7FF069BAC
:102E7000012B14D00020BDE8104004B07047E36877
:102E800043F48013E360EFE7E36843F04003E3605B
:102E90002046FFF7B3FF4FF48033A363E7E7A3684F
:102EA00043F00603A360A36843F02003A360E1E7B7
:102EB000BFFFBDFF836843F00103836000207047BC
:102EC000836823F0010383600020704708B5C3685E
:102ED00023F0C043C360012909D069B9C36843F036
:102EE0008043C360322001F0B5FF002008BDC368F5
:102EF00043F00053C360F5E70120F7E7890141F093
:102F00002001016100230133054A934205D802697B
:102F100012F0200FF7D1002070470320704700BF48
:102F2000400D03001023036100230133054A93423F
:102F300005D8026912F0100FF7D100207047032066
:102F4000704700BF400D030070B49DF80C4064B999
:102F500003339D0807E000EB023303F5805351F87B
:102F6000046B1E600134AC42F5D3002070BC704786
:102F700003329208002393420CD210B400F580541F
:102F8000246841F8044B01339342F7D308465DF8B7
:102F9000044B70470846704742698069104070478B
:102FA000406900F00100704710B400F58064D0F86B
:102FB000003423F00303C0F80034D0F8003401F0EB
:102FC00003021343C0F80034012905D0022907D0B9
:102FD00000205DF8044B70474BF680336360F7E7E1
:102FE00041F270736360F3E730B583B004460025A7
:102FF0000195D0F840340193019B23F02E030193F7
:10300000019B43F48073C0F84034642001F022FF38
:10301000019B23F48073C4F840340A2001F01AFFA6
:10302000284603B030BD82B000230193D0F840346D
:103030000193019B23F02E030193019B13F4805F06
:1030400001D101290CD0019B13F4805F05D021B977
:10305000019B23F48053C0F84034002002B0704735
:10306000019B43F48053C0F84034ECE784B038B59A
:10307000044605A880E80E0025460023C4F8003E5B
:10308000A36B23F40013A363079B032B0ED0D4F888
:10309000003423F00403C4F8003410212046FFF765
:1030A0002DFF2046FFF73EFF002213E0B4F1A04FB2
:1030B000EDD0D4F8003443F00403C4F80034ECE756
:1030C00005EB42134FF0FF31C3F808150021C3F898
:1030D0000C150132069B9342F2D801212046FFF7DE
:1030E000A2FFC82001F0B6FE0023A3614FF0FF331A
:1030F0006361B4F1A04F17D04FF40073636203F122
:103100008073A3620D4BC4F80031089B1BB9A369FF
:1031100043F01003A361A269094B1343A36100208C
:10312000BDE8384004B070478023636203F5C003F4
:10313000A362044BC4F80031E7E700BF0003E000DE
:10314000080020A3E000400082B000230193D0F8E3
:10315000403401930198C0F3414002B0704700F53C
:103160008060806880B27047F0B506469DF81840D0
:1031700000EB411505F5A0604FF0FF378760032C89
:1031800064D8DFE804F00255021740F29D47C7609B
:1031900012F0800F08D1B6F1A04F59D0C76847F0A0
:1031A0006007C76000200CE0C76847F48077C760FD
:1031B000002006E040F29D67C76012F0800F31D119
:1031C000002006F5806ED6F8187401F00F014FF05C
:1031D000010C0CFA01F13943C6F81814B16941F039
:1031E0000071B16112F0800F34D100269DF81410E7
:1031F000022932D000219B0503F0FE53D20202F4D3
:10320000F0421343A20402F440221343BDF81C20F1
:10321000C2F30A02134333430B43C5F80035032CB2
:103220001ED0F0BDC76847F48077C7600020C8E7AC
:1032300040F22527C76012F0800F01D10020C0E7BF
:10324000C76847F4C077C7600020BAE70120B8E735
:103250000020B6E74FF40046C8E74FF40031CAE754
:10326000D5F8003543F00053C5F80035D9E700F52F
:103270008060406980B2704710B400EB411101F5E5
:10328000A062D1F80035C3F38143022B14BF0024A0
:103290000124002B14BF234601235BB3D1F8003572
:1032A00043F08043C1F80035C36A13F47F0F1AD18D
:1032B000D1F8003523F00043C1F80035D1F80035CE
:1032C00043F00043C1F80035D1F8003523F4004342
:1032D000C1F8003500230133B3F57A7F36D8116881
:1032E0000029F8DB32E0D1F8003543F00043C1F8A3
:1032F00000352BE0D1F8003543F08043C1F80035AC
:10330000D0F8103413F47F0F1AD1D1F8003523F020
:103310000043C1F80035D1F8003543F00043C1F84F
:103320000035D1F8003523F40043C1F800350023FF
:103330000133B3F57A7F09D811680029F8DB05E07D
:10334000D1F8003543F00043C1F8003500205DF8A6
:10335000044B704700EB4111064AC1F81025D1F823
:10336000003523F0804343F00043C1F800350020CE
:10337000704700BF0000088070B582B04C78B0F193
:10338000A04F07D00B792BB912B94B79012B11D073
:10339000012A13D00B69E3B10D892B44013BB3FB28
:1033A000F5F39BB2B3F5807F14D92D020D614FF474
:1033B00080730FE02146FFF7CDFF75E000EB44136B
:1033C000D3F80C5525F06005C3F80C5500234B715C
:1033D000E0E70123CD781DB10D8905FB03F50D61F3
:1033E0000D69C5F31205384E06EAC3432B438D7AA7
:1033F0006D0705F0C04500EB44142B43C4F81035AD
:1034000012B1CB68C4F8143500F58066B36813F0C8
:10341000010FD4F8003523F00053C4F80035D4F878
:1034200000350CBF4FF0005500252B43C4F8003584
:10343000D4F80055254B1D601D6825F080451D60A2
:10344000CB78C3B1214D2B6843F400432B601F4B55
:103450001D6845F000451D601B68C4F800351ABBA7
:10346000CB780BBB0B69FBB1CA79032A14D8DFE810
:1034700002F0081E081E154D2B6823F400432B6034
:10348000E5E70333C26A92B2C3F38F039A4203D2D1
:10349000836943F020038361CC684A780B8A00215A
:1034A00000912146FFF750FD002002B070BD0333AC
:1034B000326992B2C3F38F039A42EDD2836943F02B
:1034C00080638361E8E700BF0000F81FC4000020AC
:1034D00070B505460446FFF7F3FC10212846FFF7B8
:1034E0000DFD2846FFF71EFD00220AE004EB421105
:1034F000D1F8003523F0802343F08043C1F8003534
:1035000001320F2AF2D90020034600E001300F28D3
:1035100013D804EB401606F5A061D6F8002522F476
:10352000004242F04042C6F800250133B3F57A7FED
:10353000ECD80A68002AF8DBE8E74FF0FF33C5F85B
:1035400014346B612846FFF7B5FC002070BD000005
:103550000649CB6823F4E0631B041B0C000200F453
:10356000E0600343024A1A43CA60704700ED00E07E
:103570000000FA0530B4154BDB68C3F30223C3F136
:103580000704042C28BF04241D1D062D14D9033B59
:103590004FF0FF3505FA04F421EA0401994005FAD9
:1035A00003F322EA03031943002807DB0901C9B228
:1035B000074B195430BC70470023E9E700F00F00B7
:1035C0000901C9B2034B1954F4E700BF00ED00E054
:1035D00000E400E014ED00E000F01F0240090123C8
:1035E0009340024A42F82030704700BF00E100E0FB
:1035F0000138B0F1807F0AD2064B5860064AF021AC
:1036000082F823100020986007221A60704701207A
:10361000704700BF10E000E000ED00E0042805D096
:10362000054A136823F0040313607047024A1368C5
:1036300043F004031360704710E000E0002857D007
:1036400010B5044690F84130002B41D0242384F873
:1036500041302268136823F0010313606368226815
:1036600023F0706313612268936823F4004393602E
:10367000E368012B31D0A368226843F404439360CC
:10368000E368022B2FD0226851681A4B0B4353601A
:103690002268D36823F40043D3602369626913432B
:1036A000A169226843EA0123D360E369216A2268A1
:1036B0000B4313602268136843F00103136000207A
:1036C0006064202384F84130206384F8420010BDF8
:1036D00080F84030FEF7FEF8B8E7A368226843F4AC
:1036E00000439360CCE723684FF400625A60CAE756
:1036F000012070470080000290F84130DBB2202B9F
:1037000024D190F84030012B22D0012380F84030A2
:10371000242380F841300268136823F0010313600A
:103720000268136823F48053136002681368194316
:1037300011600268136843F001031360202380F8CE
:103740004130002380F8403018467047022070470F
:103750000220704790F84130DBB2202B22D190F844
:103760004030012B20D0012380F84030242380F802
:1037700041300268136823F0010313600268136884
:1037800023F4706343EA012111600268136843F077
:1037900001031360202380F84130002380F840307B
:1037A0001846704702207047022070477047026831
:1037B000D36843F00103D3600268136843F0010348
:1037C000136000207047704770477047704710B50E
:1037D000044603681A6912F0020F11D0DA6812F079
:1037E000020F0DD06FF002021A6101230377036804
:1037F0009B6913F0030F79D0FFF7E6FF00232377CF
:1038000023681A6912F0040F12D0DA6812F0040F5C
:103810000ED06FF004021A610223237723689B699C
:1038200013F4407F68D02046FFF7CEFF00232377B4
:1038300023681A6912F0080F12D0DA6812F0080F24
:103840000ED06FF008021A61042323772368DB6926
:1038500013F0030F57D02046FFF7B6FF002323775E
:1038600023681A6912F0100F12D0DA6812F0100FE4
:103870000ED06FF010021A61082323772368DB69EA
:1038800013F4407F46D02046FFF79EFF00232377A6
:1038900023681A6912F0010F03D0DA6812F0010FE1
:1038A0003FD123681A6912F0800F03D0DA6812F052
:1038B000800F3DD123681A6912F4807F03D0DA6843
:1038C00012F0800F3BD123681A6912F0400F03D029
:1038D000DA6812F0400F39D123681A6912F0200F0C
:1038E00003D0DA6812F0200F37D110BDFFF76BFF5D
:1038F0002046FFF76AFF81E72046FFF764FF204676
:10390000FFF763FF92E72046FFF75DFF2046FFF7D2
:103910005CFFA3E72046FFF756FF2046FFF755FF61
:10392000B4E76FF001021A612046FDF7E1F8B8E74D
:103930006FF080021A61204600F0B6F8BAE76FF027
:1039400080021A61204600F0AFF8BCE76FF0400239
:103950001A612046FFF73AFFBEE76FF020021A61B6
:10396000204600F0A0F8C0E770B403683A4CA042CB
:1039700014BF00240124B0F1804F14BF224644F04C
:103980000102AAB9354DA84214BF00250125344EC5
:10399000B0420DD065B905F1804505F58235A842E4
:1039A00014BF0025012506F50066B04200D01DB108
:1039B00023F070034D682B43002A33D1274A9042ED
:1039C00014BF00220122264DA8422BD052BB02F187
:1039D000804202F58232904214BF0022012205F596
:1039E0000065A8421ED0EAB91E4A904214BF0022C8
:1039F000012205F59A35A84214D09AB91A4A904284
:103A000014BF0022012205F50065A8420AD04AB978
:103A1000164A904214BF00220122A5F59635A8420D
:103A200000D01AB123F44073CA68134323F0800313
:103A30004A69134303608A68C2620A6882620C4B57
:103A4000984214BF234644F001030BB10B69036392
:103A50000123436170BC7047000001400008004032
:103A600000040040004401400018004000200040D5
:103A700000040140A8B110B5044690F83D305BB198
:103A8000022384F83D30211D2068FFF76DFF0123DC
:103A900084F83D30002010BD80F83C30FFF786FEF2
:103AA000EEE701207047704770472DE9F041054669
:103AB0000F4616469846069C2B68DB6937EA0303D7
:103AC0000CBF01230023B3421DD1B4F1FF3FF3D05B
:103AD0002CB101F0B9F9A0EB0800A042ECD32A68A0
:103AE000136823F4D07313602A68936823F00103EA
:103AF0009360202385F8693085F86A30002385F8C3
:103B00006830032000E00020BDE8F08110B50446D5
:103B100083680269134342691343C269134301680E
:103B200008689D4A024013430B602268536823F4DF
:103B30004053E1680B435360A369226A1A4321682A
:103B40008B6823F4306313438B602368934A93425A
:103B500019D0934A93422AD0924A934240D0924A33
:103B6000934255D0914A93426AD0914A934200F0D1
:103B70008280904A934200F099808F4A934200F0ED
:103B8000B0801022C9E002F59432D2F8902002F001
:103B90000302032A03D8DFE802F0BF06040810225C
:103BA000BBE00222B9E00422B7E00822B5E002F54A
:103BB000FA32D2F8902002F00C020C2A08D8DFE882
:103BC00002F0BA0707070B070707090707070D00E9
:103BD0001022A2E00222A0E004229EE008229CE043
:103BE00002F5F832D2F8902002F03002102A0DD0FF
:103BF00005D9202A08D0302A04D108228DE00AB93C
:103C000000228AE0102288E0022286E0042284E07A
:103C100002F5F632D2F8902002F0C002402A0DD010
:103C200005D9802A08D0C02A04D1082275E00AB933
:103C3000002272E0102270E002226EE004226CE0AA
:103C400002F5F432D2F8902002F44072B2F5807F8F
:103C50000FD007D9B2F5007F09D0B2F5407F04D16B
:103C600008225AE00AB9002257E0102255E0022249
:103C700053E0042251E002F59232D2F8902002F48F
:103C80004062B2F5806F0FD007D9B2F5006F09D04E
:103C9000B2F5406F04D108223FE00AB901223CE0AE
:103CA00010223AE0022238E0042236E002F5E03247
:103CB000D2F8902002F44052B2F5805F0FD007D9BD
:103CC000B2F5005F09D0B2F5405F04D1082224E0CC
:103CD0000AB9002221E010221FE002221DE0042286
:103CE0001BE002F5DE32D2F8902002F44042B2F539
:103CF000804F0FD007D9B2F5004F09D0B2F5404F31
:103D000004D1082209E00AB9002206E0102204E0EA
:103D1000022202E0042200E00122E169B1F5004F35
:103D20000BD0082A00F29B80DFE802F0616D7999E0
:103D3000839999998F000022EFE7082A54D8DFE889
:103D400002F0051722533F5353534A0000F056FC2C
:103D50006268530803EB4003B3FBF2F39BB200200D
:103D600023F00F02C3F3420313432268D36010BD54
:103D700000F054FC6268530803EB4003B3FBF2F31A
:103D80009BB20020ECE762680C4B03EB5203B3FBE1
:103D9000F2F39BB20020E3E7F369FFEF001001406C
:103DA0000044004000480040004C004000500040EB
:103DB0000014014000780040007C00400048E80109
:103DC00000F0F8FA6268530803EB4003B3FBF2F328
:103DD0009BB20020C4E76268530803F58033B3FB4D
:103DE000F2F39BB20020BBE701200023B8E700F00C
:103DF00005FC636800EB5300B0FBF3F0236880B26E
:103E0000D8600020B3E700F009FC636800EB5300C2
:103E1000B0FBF3F0236880B2D8600020A7E76168A8
:103E2000104A02EB5102B2FBF1F292B2DA600020CA
:103E30009DE700F0BFFA636800EB5300B0FBF3F0BE
:103E4000236880B2D860002091E761684A0802F5D3
:103E50000042B2FBF1F292B2DA60002087E7012063
:103E600085E700BF0024F400436A13F0010F06D079
:103E70000268536823F40033816A0B435360436A3A
:103E800013F0020F06D00268536823F48033C16A2E
:103E90000B435360436A13F0040F06D00268536863
:103EA00023F48023016B0B435360436A13F0080F24
:103EB00006D00268536823F40043416B0B43536000
:103EC000436A13F0100F06D00268936823F48053FE
:103ED000816B0B439360436A13F0200F06D0026896
:103EE000936823F40053C16B0B439360436A13F050
:103EF000400F0AD00268536823F48013016C0B430F
:103F00005360036CB3F5801F0BD0436A13F0800F2E
:103F100006D00268536823F40023816C0B4353607E
:103F200070470268536823F4C003416C0B4353602D
:103F3000EBE710B582B004460023C36600F084FFAF
:103F40002268126812F0080F09D1202384F8693022
:103F500084F86A30002084F8680002B010BD6FF069
:103F60007E430093034600224FF400112046FFF7E2
:103F70009CFD0028E9D00320EFE778B310B5044694
:103F800090F869300BB3242384F8693022681368F1
:103F900023F0010313602046FFF7B8FD012813D07A
:103FA000636ABBB92268536823F490435360226864
:103FB000936823F02A0393602268136843F0010397
:103FC00013602046FFF7B5FF10BD80F86830FDF79D
:103FD000A9FCD8E72046FFF747FFE3E70120704739
:103FE000002800F0DB8170B582B00446036813F04E
:103FF000010F29D0A24B9B6803F00C03042B1AD0AD
:104000009F4B9B6803F00C03082B0FD06368B3F53C
:10401000803F40D0002B54D1994B1A6822F4803253
:104020001A601A6822F480221A6039E0944B5B68A7
:1040300013F4800FEAD0924B1B6813F4003F03D0B7
:104040006368002B00F0AC81236813F0020F75D079
:104050008B4B9B6813F00C0F5ED0894B9B6803F071
:104060000C03082B53D0E368002B00F08A80844AAD
:10407000136843F00103136000F0E6FE0546804B31
:104080001B6813F0020F73D100F0DEFE401B022804
:10409000F5D9032087E17A4A136843F4803313602B
:1040A00063682BB300F0D0FE0546754B1B6813F414
:1040B000003FC9D100F0C8FE401B6428F5D9032099
:1040C00071E1B3F5A02F09D06D4B1A6822F480324C
:1040D0001A601A6822F480221A60E1E7684B1A68B5
:1040E00042F480221A601A6842F480321A60D7E7DC
:1040F00000F0AAFE0546624B1B6813F4003FA3D0F4
:1041000000F0A2FE401B6428F5D903204BE15C4B74
:104110005B6813F4800FA6D1594B1B6813F0020F94
:1041200004D0E368012B01D001203CE1544A13681C
:1041300023F0F803216943EAC1031360236813F0F5
:10414000080F46D0636983B34D4A536F43F00103B0
:10415000536700F079FE0546494B5B6F13F0020F81
:1041600037D100F071FE401B0228F5D903201AE177
:10417000434A136823F0F803216943EAC10313603B
:10418000DCE73F4A136823F00103136000F05CFE94
:1041900005463B4B1B6813F0020FCFD000F054FED6
:1041A000401B0228F5D90320FDE0354A536F23F068
:1041B0000103536700F048FE0546314B5B6F13F077
:1041C000020F06D000F040FE401B0228F5D9032064
:1041D000E9E0236813F0040F7ED0294B1B6C13F029
:1041E000805F1ED1264B1A6C42F080521A641B6C01
:1041F00003F080530193019B0125224B1B6813F4AC
:10420000807F10D0A368012B21D0002B3CD11C4B08
:104210001A6F22F001021A671A6F22F004021A675D
:104220001AE00025E9E7174A136843F48073136026
:1042300000F00AFE0646134B1B6813F4807FE1D1A1
:1042400000F002FE801B6428F5D90320ABE00C4A85
:10425000136F43F001031367A3685BB300F0F4FD31
:104260000646074B1B6F13F0020F34D100F0ECFD34
:10427000801B41F288339842F3D9032093E000BFBA
:104280000038024000700040052B09D0484B1A6FDF
:1042900022F001021A671A6F22F004021A67DBE7A4
:1042A000434B1A6F42F004021A671A6F42F0010280
:1042B0001A67D1E700F0C8FD06463D4B1B6F13F0AF
:1042C000020F08D000F0C0FD801B41F288339842F5
:1042D000F3D9032067E0F5B9A369002B62D0344A13
:1042E000926802F00C02082A5FD0022B19D0304AE3
:1042F000136823F08073136000F0A6FD04462C4B76
:104300001B6813F0007F47D000F09EFD001B0228C1
:10431000F5D9032047E0264A136C23F08053136439
:10432000DAE7234A136823F08073136000F08CFDF2
:1043300005461F4B1B6813F0007F06D000F084FD7C
:10434000401B0228F5D903202DE0E369226A1343BC
:10435000626A43EA8213A26A5208013A43EA0243BC
:10436000E26A43EA026343F00053114A5360136860
:1043700043F08073136000F067FD04460C4B1B682C
:1043800013F0007F06D100F05FFD001B0228F5D975
:10439000032008E0002006E0002004E00120704730
:1043A000012000E0002002B070BD0120FBE700BF4B
:1043B00000380240324B9B6803F00C03042B5CD0A6
:1043C000082B01D02F4870472DE9F04B2C4B5A6831
:1043D00002F03F025B6813F4800F2BD0284B5B6820
:1043E000C3F388131E4600275C010025E41A65EB21
:1043F0000705A90141EA9461A001001B61EB0501D9
:10440000CB0043EA5073C400A01943EB07014B02F1
:1044100043EAD0534402204619460023FBF778FFB5
:10442000174B5B68C3F3014301335B00B0FBF3F050
:10443000BDE8F08B124B5B68C3F388131E46002760
:104440005C010025E41A65EB0705A90141EA9461C6
:10445000A001001B61EB0501CB0043EA5073C400CF
:10446000A01943EB07018B0243EA905384022046D4
:1044700019460023FBF74CFFD2E70348704700BF03
:10448000003802400024F40000127A00002800F0F6
:10449000A28070B50446524B1B6803F00F038B4299
:1044A0000CD24F4A136823F00F030B4313601368B9
:1044B00003F00F038B4201D0012070BD236813F07D
:1044C000020F17D013F0040F04D0464A936843F448
:1044D000E0539360236813F0080F04D0414A9368B7
:1044E00043F4604393603F4A936823F0F003A0686D
:1044F000034393600D46236813F0010F31D06368C6
:10450000012B20D0022B25D0364A126812F0020F60
:1045100063D034498A6822F0030213438B6000F0B1
:1045200093FC06462F4B9B6803F00C036268B3EBC9
:10453000820F16D000F088FC801B41F2883398422D
:10454000F0D90320B9E7274A126812F4003FE0D1FE
:104550000120B2E7234A126812F0007FD9D101206E
:10456000ABE71F4B1B6803F00F03AB420CD91C4A8F
:10457000136823F00F032B431360136803F00F033A
:10458000AB4201D0012098E7236813F0040F06D056
:10459000144A936823F4E053E1680B439360236863
:1045A00013F0080F07D00F4A936823F46043216982
:1045B00043EAC1039360FFF7FDFE0A4B9B68C3F318
:1045C0000313094AD35CD840084B18600020FDF75C
:1045D000D1F9002071E70120704701206DE700BF8D
:1045E000003C024000380240382D01080400002041
:1045F000014B1868704700BF0400002008B5FFF7A2
:10460000F7FF044B9B68C3F38223034AD35CD84073
:1046100008BD00BF00380240482D010808B5FFF76B
:10462000E7FF044B9B68C3F34233034AD35CD84093
:1046300008BD00BF00380240482D01080F23036069
:104640000B4B9A6802F0030242609A6802F0F00293
:1046500082609A6802F4E052C2609B68DB0803F44F
:10466000E0530361034B1B6803F00F030B607047BB
:1046700000380240003C0240F0B583B004460368B5
:1046800013F0010F0CD0AF4B9A6822F400029A602D
:104690009A68416B0A439A60436BC3B1002600E0FD
:1046A0000026236813F4002F15D0A64AD2F88C30C8
:1046B00023F44013E16B0B43C2F88C30E36BB3F58A
:1046C000801F06D0002B00F01B81002504E001268E
:1046D000E7E70126F6E70025236813F4801F0FD0D3
:1046E000984AD2F88C3023F44003216C0B43C2F873
:1046F0008C30236CB3F5800F00F0048103B90125E1
:10470000236813F0807F00D0012613F0200F40F0C3
:10471000FB80236813F0100F0CD08A4BD3F88C2049
:1047200022F08072C3F88C20D3F88C20A16B0A434E
:10473000C3F88C20236813F4804F08D0814AD2F844
:10474000903023F44033616E0B43C2F890302368FD
:1047500013F4004F08D07B4AD2F8903023F4402362
:10476000A16E0B43C2F89030236813F4803F08D049
:10477000744AD2F8903023F44013E16E0B43C2F830
:104780009030236813F4003F08D06E4AD2F890307E
:1047900023F44003216F0B43C2F89030236813F0D9
:1047A000400F08D0674AD2F8903023F00303616CC1
:1047B0000B43C2F89030236813F0800F08D0614A91
:1047C000D2F8903023F00C03A16C0B43C2F8903068
:1047D000236813F4807F08D05A4AD2F8903023F02F
:1047E0003003E16C0B43C2F89030236813F4007F70
:1047F00008D0544AD2F8903023F0C003216D0B4307
:10480000C2F89030236813F4806F08D04D4AD2F874
:10481000903023F44073616D0B43C2F890302368ED
:1048200013F4006F08D0474AD2F8903023F4406365
:10483000A16D0B43C2F89030236813F4805F08D059
:10484000404AD2F8903023F44053E16D0B43C2F854
:104850009030236813F4005F08D03A4AD2F89030C1
:1048600023F44043216E0B43C2F89030236813F4C5
:10487000800F08D0334AD2F8903023F08063A16FC4
:104880000B43C2F89030236813F4001F0DD02D4A5B
:10489000D2F8903023F00063E16F0B43C2F8903000
:1048A000E36FB3F1006F00F09980236813F0080FF5
:1048B00000D0012513F4802F08D0224AD2F890307E
:1048C00023F04073616F0B43C2F89030236813F4F8
:1048D000000F09D01B4AD2F8903023F08053D4F84F
:1048E00080100B43C2F89030002E79D12368B3F1C9
:1048F000007F75D0002D40F00681002003B0F0BD90
:104900000125E9E60126F9E60E4B1A6C42F08052C9
:104910001A641B6C03F080530193019B0A4A1368CD
:1049200043F48073136000F08FFA0746064B1B6850
:1049300013F4807F0AD100F087FAC01B6428F5D9F0
:104940000320DBE70038024000700040B34B1B6FD0
:1049500013F4407315D0226B02F440729A4210D0C7
:10496000AE4B1A6F22F44072196F41F4803119670F
:10497000196F21F4803119671A671B6F13F0010F4B
:1049800012D1236B03F44072B2F5407F1DD0A34ACD
:10499000936823F4F8139360A0490B6F226BC2F362
:1049A0000B0213430B67B4E600F04EFA07469B4B2D
:1049B0001B6F13F0020FE4D100F046FAC01B41F266
:1049C00088339842F3D9032098E79448826822F408
:1049D000F812934919400A438260DDE7012564E734
:1049E0008E4A136823F08063136000F02DFA0646A8
:1049F0008A4B1B6813F0006F06D000F025FA801B6D
:104A00006428F5D9032079E7236813F0010F13D048
:104A1000636B8BB9814AD2F88430D2F88410606815
:104A200003F4403343EA801301F070610B43A16843
:104A300043EA0173C2F88430236813F4002F03D0D3
:104A4000E26BB2F5801F06D013F4801F1ED0236CDA
:104A5000B3F5800F1AD1714AD2F88430D2F884109D
:104A6000606803F4403343EA8013E06843EA00637C
:104A700001F0E0410B43C2F88430D2F88C3023F0CF
:104A80001F03616A01390B43C2F88C30236813F0AD
:104A9000807F11D0614AD2F88400D2F88410666811
:104AA00023691B0443EA861300F07060034301F09E
:104AB000E0410B43C2F88430236813F0007F0DD02F
:104AC000626823691B0443EA8213E26843EA0263D3
:104AD000A26843EA0273514AC2F884304F4A13680D
:104AE00043F08063136000F0AFF906464B4B1B6840
:104AF00013F0006F7FF4FEAE00F0A6F9801B64286F
:104B0000F4D90320FAE6454A136823F08053136072
:104B100000F09AF90546414B1B6813F0005F06D080
:104B200000F092F9401B6428F5D90320E6E62368DB
:104B300013F4002F01D0E26B22B113F4801F1DD0BB
:104B4000236CDBB9354AD2F88830D2F88810606916
:104B500003F4403343EA8013A06943EA006301F0A1
:104B6000E0410B43C2F88830D2F88C3023F4F8537C
:104B7000A16A013943EA0123C2F88C30236813F497
:104B8000001F03D0E36FB3F1006F31D0236813F03F
:104B9000080F19D0214AD2F88810D2F888306069FD
:104BA00003F4403343EA801301F070610B43E16981
:104BB00043EA0173C2F88830D2F88C3023F44033D2
:104BC000E16A0B43C2F88C30144A136843F08053F7
:104BD000136000F039F90446104B1B6813F0005FB6
:104BE00019D100F031F9001B6428F5D9032085E6BE
:104BF0000A4AD2F88800D2F888106569236A1B0433
:104C000043EA851300F07060034301F0E0410B4379
:104C1000C2F88830BAE7002070E600BF00380240D2
:104C2000FFFCFF0F00230F2B00F2E280F0B482B0F4
:104C300039E0092200E00022B2403A4302346D4ECE
:104C400046F824206C4A1468EA4302EA04064F68D6
:104C500017F4803F01D045EA0406674C266064687B
:104C600002EA04064F6817F4003F01D045EA040643
:104C7000614C6660A46802EA04064F6817F4801F5E
:104C800001D045EA04065C4CA660E46822404E6808
:104C900016F4001F01D045EA0402574CE2600133CC
:104CA0000F2B00F2A28001229A400C6804EA020550
:104CB000AA42F4D14C68122C18BF022C10D1DE0885
:104CC000083650F826C003F00704A7000F24BC40A4
:104CD0002CEA040C0C69BC4044EA0C0440F8264061
:104CE00004685F000326BE40F64306EA040C4C68E5
:104CF00004F00304BC4044EA0C0404604C6804F172
:104D0000FF3C112C18BFBCF1010F01D9122C11D19D
:104D1000846806EA040CCC68BC4044EA0C04846055
:104D2000446824EA020C4C68C4F300129A4042EA38
:104D30000C024260C26816408A68BA403243C260C0
:104D40004A6812F0805FAAD02C4A546C44F4804424
:104D50005464526C02F480420192019A9C08A61C91
:104D6000244A52F8267003F0030296000F22B24044
:104D700027EA0207224A90423FF45DAF02F58062C3
:104D8000904222D002F58062904220D002F58062EB
:104D900090421ED002F5806290421CD002F58062E3
:104DA00090421AD002F58062904218D002F58062DB
:104DB000904216D002F58062904214D002F58062D3
:104DC00090423FF436AF0A2236E7012234E702224E
:104DD00032E7032230E704222EE705222CE70622E1
:104DE0002AE7072228E7082226E702B0F0BC70472E
:104DF000704700BF00380140003C014000380240CD
:104E00000000024012B90904816170478161704756
:104E1000436959404161704708B50320FEF798FB8C
:104E20000020FCF7A7FDFCF70DFD002008BD0000E9
:104E3000034A1168034B1B780B441360704700BF93
:104E4000287D002000000020014B1868704700BF3B
:104E5000287D002038B50446FFF7F6FF0546B4F17B
:104E6000FF3F02D0044B1B781C44FFF7EDFF401BB3
:104E7000A042FAD338BD00BF0000002010B40F4A92
:104E8000D2F8883043F47003C2F888300C4B1968AC
:104E900041F001011960002098601C680949214017
:104EA000196009495960196821F480211960D86096
:104EB0004FF0006393605DF8044B704700ED00E035
:104EC00000380240FFFFF6FE1030002410B582B01B
:104ED0000C4602A8002340F8043D012103F0A4FA87
:104EE0002060003018BF012002B010BD08B503F0EB
:104EF00017FB012008BD08B54FF47A7103F0A8FA3A
:104F000008B9012008BD0020FCE708B503F0DAFA73
:104F100008BD000008B5044B03EB800252685268DC
:104F20000344187A904708BDF000002008B5084BEC
:104F30001B5C53B9064B01221A5403EB80025268E2
:104F400012681844007A904708BD0020FCE700BFB3
:104F5000F000002038B5044C04EB80056D68AD68A6
:104F60000444207AA84738BDF000002038B5044C2E
:104F700004EB80056D68ED680444207AA84738BDCD
:104F8000F000002010B5044B03EB80046468246932
:104F90000344187AA04710BDF00000204278007842
:104FA00040EA02207047C278837843EA02224378BD
:104FB00043EA0223007840EA032070470170090A9F
:104FC000417070470170C1F307234370C1F3074379
:104FD0008370090EC170704713462AB10A780270B7
:104FE00001300131013BF9D1704701700130013AC4
:104FF000FBD1704730B4451C037808781B1A013A7E
:1050000004D04C1C28462146002BF4D0184630BC56
:10501000704700E0013003780BB18B42FAD118469B
:105020007047000030B400252B4601E00125013314
:10503000012B15D81A01174CA258002AF6D0046883
:10504000A242F4D1134A02EB0312546882689442DC
:10505000EDD1104A02EB0312946842699442E6D102
:10506000022B0AD0A1B90B4A02EB03139B89B3F5BB
:10507000807F09D0002030BC7047022908BF45F06E
:1050800001051DB10020F6E71020F4E71220F2E739
:105090001020F0E7CC000020002000E001300128C3
:1050A00004D80301034AD358002BF7D1023818BFA4
:1050B00001207047CC00002070B4002300E00133D1
:1050C000012B13D81A01244CA45802689442F6D13B
:1050D000214A02EB0312546882689442EFD11E4ABF
:1050E00002EB0312946842699442E8D1022B29D062
:1050F00021B1194A02EB0312928952BB21BB164A15
:1051000002EB03129189013189B2134A02EB0312B7
:105110009181581C70BC70470133012B04D81A01CF
:105120000D4CA258002AF7D1022B10D006680A4D68
:105130001C012A192E518468546040699060002037
:105140009081D5E70023E8E74FF48071DDE7002088
:10515000E0E70020DEE700BFCC0000200138012896
:1051600015D80D4B03EB00139B89B3F5807F03D05B
:105170001BB1013B9BB200E00023074A02EB001287
:10518000938133B903010020034AD05070470220B5
:1051900070470020704700BFCC000020002303E0D0
:1051A0005DF8044B70470133012B11D81A010949EE
:1051B0008A588242F7D110B41A0100248C5001336E
:1051C000012BEDD81A0103498A588242F7D1F3E73F
:1051D000704700BFCC00002002398369023B8B423C
:1051E00004D94389C06A01FB03007047002070475F
:1051F0000268C36A0433490A5289B1FBF2F11868A4
:1052000030B1814202D3091A0833F8E758680844DC
:10521000704770B506460D4601F11A00FFF7BEFE55
:105220003378032B00D070BD044605F11400FFF75E
:10523000B5FE44EA0040F6E770B506460C46154652
:1052400091B204F11A00FFF7B9FE3378032B00D0B6
:1052500070BD290C04F11400FFF7B0FEF8E700233D
:105260004B72C36973B370B50022134605E0092C75
:105270000ED08D186B72013223460A2B0DD8056AA9
:105280005C1CEB5C202BF7D0052BF0D1E523EEE77F
:105290008D182E266E720132EBE70D4604460A4445
:1052A00000235372036ADB7A0B72006A1C30FFF72B
:1052B0007AFE2860206A1630FFF775FEE880000C41
:1052C000A88070BD704700002DE9F84F82468B46DC
:1052D000D1F8008000F124090B2220214846FFF775
:1052E00084FE00252B46082729E0013618F80630F1
:1052F0005C2B18BF2F2BF8D04644CBF80060002D54
:1053000045D09AF82430E52B36D0202C38D8042309
:105310008AF82F30002036E014F0800F28D1214683
:105320001C48FFF776FE80BBA4F16103DBB2192BAA
:1053300001D8203CE4B209F80540013533465E1C33
:1053400018F80340202CD7D95C2C18BF2F2CCDD0B7
:105350002E2C18BFAF42DFD82E3C18BF01240B2FD4
:1053600014BF274644F0010767B908250B27E5E776
:10537000803C094B1C5DD2E705238AF82430C4E742
:105380000023C5E70620BDE8F88F0620FBE70620CE
:10539000F9E700BFD02D0108502D0108016809B1BF
:1053A0000A4603E04FF0FF3308E0013213783A2B4E
:1053B00018BF202BF9D83A2B02D00023184670478B
:1053C00010B44C1C0B78303B092B98BFA24206D17D
:1053D00043B90132026018465DF8044B70474FF044
:1053E000FF33F8E74FF0FF33F5E708B530B1C06899
:1053F000FFF781FD034610B1012300E000231846AA
:1054000008BD38B50D4640B1044603682BB11A7883
:105410001AB1D9888288914203D000232B600920D9
:1054200038BD5878FFF776FD10F0010FF5D12368ED
:105430002B602068FFF7D9FF08B10020F0E70F20AC
:10544000EEE7F8B5C3780BB90020F8BD0446056B4C
:1054500000F1340701232A4639464078FFF786FDDC
:10546000A8B90023E370636AEB1AE269934210D291
:10547000A678012E09D9E3691D4401232A4639463D
:105480006078FFF773FD013EF3E70020DDE70120C0
:10549000DBE70020D9E770B5036B8B4212D00446DE
:1054A0000D46FFF7CEFF064668B901232A4604F1F0
:1054B00034016078FFF74EFD10B101264FF0FF3543
:1054C000256300E00026304670BD000010B504469C
:1054D0000023C3704FF0FF330363FFF7DCFF18BBFB
:1054E00004F23220FFF75AFD4AF6552398421DD1A7
:1054F00094F83430E92B05D0636B03F0FF130F4AA7
:10550000934215D104F16A00FFF74DFD20F07F4072
:105510000B4B98420ED004F18600FFF744FD094B77
:10552000984209D1002002E0042000E0032010BDD1
:105530000220FCE70020FAE70220F8E7EB009000E9
:1055400046415400464154332DE9F04784B00E469D
:10555000174600230B60FFF721FF051EC0F24A81AA
:10556000BA4B53F82540002C00F046812046FFF747
:105570003CFF002800F04481346007F0FE072378E8
:1055800073B16078FFF7C6FC10F0010F08D1002F4F
:1055900000F0388110F0040F40F0368100202CE13B
:1055A00000232370E8B26070FFF7C0FC10F0010F19
:1055B00040F02C811FB110F0040F40F02981002130
:1055C0002046FFF783FF022800F0B680002604285B
:1055D00000F02081012800F21F8104F13F00FFF755
:1055E000DDFCB0F5007F40F0198104F14A00FFF7BF
:1055F000D5FC074620B904F15800FFF7D4FC074654
:10560000E76194F84420A270531EDBB2012B00F234
:10561000078107FB02F594F84180A4F80A80B8F1ED
:10562000000F00F0FF8008F1FF3318EA030F40F08D
:10563000FB8004F14500FFF7B1FC8246208110F0A9
:105640000F0F40F0F38004F14700FFF7A7FC8146FD
:1056500020B904F15400FFF7A6FC814604F1420092
:10566000FFF79CFC0146002800F0E280421902EBA3
:105670001A129145C0F0DE80A9EB0203B3FBF8F3E8
:10568000002B00F0D9804FF6F57083426CD94FF0B3
:10569000030940F6F570834201D84FF0010903F188
:1056A0000208C4F8188026628B1963623244E262F1
:1056B000B9F1030F5BD0BAF1000F00F0C3802B44A7
:1056C000A362B9F1020F63D008EB480208F00103AE
:1056D00003EB520303F2FF13B7EB532FC0F0B48078
:1056E0004FF0FF336361236180232371B9F1030F0E
:1056F00051D084F80090564A138801339BB213802E
:10570000E3802046FFF74AFD002076E0002004AB4E
:1057100003EB850343F8100C0135032D0ED804F17B
:1057200034002B0103F5DF7318440379002BEDD00F
:105730000830FFF738FCEAE70025EEE700250AE02D
:1057400031462046FFF7C2FE01287FF640AF013503
:10575000032D3FF63CAF04AB03EB850353F8106C0D
:10576000002EEDD10320F2E74FF0020991E704F19A
:105770005E00FFF713FC002860D1BAF1000F5FD183
:1057800004F16000FFF70FFCA0624FEA8803A1E775
:105790004FEA48039EE704F16400FFF7FFFB01288E
:1057A000A7D1711C2046FFF776FE0028A1D1002367
:1057B000237104F23220FFF7F1FB4AF65523984299
:1057C00097D104F13400FFF7EEFB224B984290D1C1
:1057D00004F50670FFF7E7FB1F4B984289D104F5EB
:1057E0000770FFF7E0FB606104F50870FFF7DBFB73
:1057F00020617EE70B2000E00C2004B0BDE8F087BC
:105800000F20FAE70020F8E70A20F6E70320F4E784
:105810000A20F2E70120F0E70D20EEE70D20ECE78B
:105820000D20EAE70D20E8E70D20E6E70D20E4E78C
:105830000D20E2E70D20E0E70D20DEE70D20DCE79C
:105840000D20DAE70D20D8E70D20D6E7C8000020AC
:10585000EC00002052526141727241612DE9F04723
:1058600001297AD983698B4279D917460C460646B5
:105870000378022B43D0032B54D0012B01D00225F7
:105880006EE001EB5108416A01EB5821FFF703FE7E
:105890000546002864D106F1340A08F10109C8F36D
:1058A000080814F001041FD01AF9083003F00F03A0
:1058B0003A0102F47F621343DBB20AF80830012395
:1058C000F370716A01EB59213046FFF7E4FD05469C
:1058D000002845D1C9F3080944B1C7F307120AF8F3
:1058E00009200123F3703BE0FBB2E6E71AF9092037
:1058F00022F00F02C7F303273A43D2B2EFE7416A1F
:1059000001EB1421FFF7C7FD054648BB06F1340043
:10591000640004F4FF74B9B22044FFF74FFB012385
:10592000F3701DE0416A01EBD411FFF7B4FD0546A9
:10593000B0B927F0704706F13403A10001F4FE71FD
:105940005C182046FFF72FFB00F0704139432046DA
:10595000FFF738FB0123F37002E0022500E0022587
:105960002846BDE8F087F8B50668012953D9B36920
:105970008B4252D90C463378022B2BD0032B39D0D3
:10598000012B01D0012047E001EB5105716A01EBC9
:1059900055213046FFF77FFD002840D16F1CC5F32D
:1059A0000805354495F83450716A01EB57213046AB
:1059B000FFF771FDB0BBC7F30803334493F834001D
:1059C00045EA002014F0010F01D0000924E0C0F3E3
:1059D0000B0021E0716A01EB14213046FFF75BFDFB
:1059E00018BB06F13400610001F4FF710844FFF7B1
:1059F000D5FA11E0716A01EBD4113046FFF74BFD87
:105A0000B0B93436A10001F4FE703044FFF7CBFA90
:105A100020F0704000E00120F8BD0120FCE74FF0CD
:105A2000FF30F9E74FF0FF30F6E74FF0FF30F3E7D4
:105A30004FF0FF30F0E72DE9F0410768B1F5001FA6
:105A40003BD206460D4611F01F0F39D171618468B3
:105A50001CB93B78022B00D9BC6A94B93B89B3EBE3
:105A6000551F2FD9BB6AF361B461F36993B303EB9C
:105A70005523F3613437C5F308053D4435620020F2
:105A80001CE0B7F80A804FEA482845450FD3214665
:105A90003046FFF768FF0446B0F1FF3F14D00128FD
:105AA00014D9BB69834213D9A5EB0805EDE721465C
:105AB0003846FFF791FBF061D6E70220BDE8F081A0
:105AC0000220FBE70220F9E70120F7E70220F5E7D3
:105AD0000220F3E70220F1E72DE9F04107460668CE
